{
  "_format": "hh-sol-artifact-1",
  "contractName": "StackupIMXCollection",
  "sourceName": "contracts/StackupIMXCollection.sol",
  "abi": [
    {
      "inputs": [
        {
          "internalType": "address",
          "name": "owner",
          "type": "address"
        },
        {
          "internalType": "string",
          "name": "name",
          "type": "string"
        },
        {
          "internalType": "string",
          "name": "symbol",
          "type": "string"
        },
        {
          "internalType": "string",
          "name": "baseURI",
          "type": "string"
        },
        {
          "internalType": "string",
          "name": "contractURI",
          "type": "string"
        },
        {
          "internalType": "address",
          "name": "operatorAllowlist",
          "type": "address"
        },
        {
          "internalType": "address",
          "name": "receiver",
          "type": "address"
        },
        {
          "internalType": "uint96",
          "name": "feeNumerator",
          "type": "uint96"
        }
      ],
      "stateMutability": "nonpayable",
      "type": "constructor"
    },
    {
      "inputs": [],
      "name": "AllowlistDoesNotImplementIOperatorAllowlist",
      "type": "error"
    },
    {
      "inputs": [
        {
          "internalType": "address",
          "name": "target",
          "type": "address"
        }
      ],
      "name": "ApproveTargetNotInAllowlist",
      "type": "error"
    },
    {
      "inputs": [
        {
          "internalType": "address",
          "name": "approver",
          "type": "address"
        }
      ],
      "name": "ApproverNotInAllowlist",
      "type": "error"
    },
    {
      "inputs": [
        {
          "internalType": "address",
          "name": "caller",
          "type": "address"
        }
      ],
      "name": "CallerNotInAllowlist",
      "type": "error"
    },
    {
      "inputs": [
        {
          "internalType": "uint256",
          "name": "tokenId",
          "type": "uint256"
        }
      ],
      "name": "IImmutableERC721IDAboveThreshold",
      "type": "error"
    },
    {
      "inputs": [
        {
          "internalType": "uint256",
          "name": "tokenId",
          "type": "uint256"
        },
        {
          "internalType": "address",
          "name": "currentOwner",
          "type": "address"
        }
      ],
      "name": "IImmutableERC721MismatchedTokenOwner",
      "type": "error"
    },
    {
      "inputs": [],
      "name": "IImmutableERC721MismatchedTransferLengths",
      "type": "error"
    },
    {
      "inputs": [
        {
          "internalType": "uint256",
          "name": "tokenId",
          "type": "uint256"
        }
      ],
      "name": "IImmutableERC721NotOwnerOrOperator",
      "type": "error"
    },
    {
      "inputs": [],
      "name": "IImmutableERC721SendingToZerothAddress",
      "type": "error"
    },
    {
      "inputs": [
        {
          "internalType": "uint256",
          "name": "tokenId",
          "type": "uint256"
        }
      ],
      "name": "IImmutableERC721TokenAlreadyBurned",
      "type": "error"
    },
    {
      "inputs": [],
      "name": "InvalidShortString",
      "type": "error"
    },
    {
      "inputs": [],
      "name": "InvalidSignature",
      "type": "error"
    },
    {
      "inputs": [],
      "name": "PermitExpired",
      "type": "error"
    },
    {
      "inputs": [],
      "name": "SignerCannotBeZerothAddress",
      "type": "error"
    },
    {
      "inputs": [
        {
          "internalType": "string",
          "name": "str",
          "type": "string"
        }
      ],
      "name": "StringTooLong",
      "type": "error"
    },
    {
      "inputs": [
        {
          "internalType": "address",
          "name": "from",
          "type": "address"
        }
      ],
      "name": "TransferFromNotInAllowlist",
      "type": "error"
    },
    {
      "inputs": [
        {
          "internalType": "address",
          "name": "to",
          "type": "address"
        }
      ],
      "name": "TransferToNotInAllowlist",
      "type": "error"
    },
    {
      "anonymous": false,
      "inputs": [
        {
          "indexed": true,
          "internalType": "address",
          "name": "owner",
          "type": "address"
        },
        {
          "indexed": true,
          "internalType": "address",
          "name": "approved",
          "type": "address"
        },
        {
          "indexed": true,
          "internalType": "uint256",
          "name": "tokenId",
          "type": "uint256"
        }
      ],
      "name": "Approval",
      "type": "event"
    },
    {
      "anonymous": false,
      "inputs": [
        {
          "indexed": true,
          "internalType": "address",
          "name": "owner",
          "type": "address"
        },
        {
          "indexed": true,
          "internalType": "address",
          "name": "operator",
          "type": "address"
        },
        {
          "indexed": false,
          "internalType": "bool",
          "name": "approved",
          "type": "bool"
        }
      ],
      "name": "ApprovalForAll",
      "type": "event"
    },
    {
      "anonymous": false,
      "inputs": [],
      "name": "EIP712DomainChanged",
      "type": "event"
    },
    {
      "anonymous": false,
      "inputs": [
        {
          "indexed": false,
          "internalType": "address",
          "name": "oldRegistry",
          "type": "address"
        },
        {
          "indexed": false,
          "internalType": "address",
          "name": "newRegistry",
          "type": "address"
        }
      ],
      "name": "OperatorAllowlistRegistryUpdated",
      "type": "event"
    },
    {
      "anonymous": false,
      "inputs": [
        {
          "indexed": true,
          "internalType": "bytes32",
          "name": "role",
          "type": "bytes32"
        },
        {
          "indexed": true,
          "internalType": "bytes32",
          "name": "previousAdminRole",
          "type": "bytes32"
        },
        {
          "indexed": true,
          "internalType": "bytes32",
          "name": "newAdminRole",
          "type": "bytes32"
        }
      ],
      "name": "RoleAdminChanged",
      "type": "event"
    },
    {
      "anonymous": false,
      "inputs": [
        {
          "indexed": true,
          "internalType": "bytes32",
          "name": "role",
          "type": "bytes32"
        },
        {
          "indexed": true,
          "internalType": "address",
          "name": "account",
          "type": "address"
        },
        {
          "indexed": true,
          "internalType": "address",
          "name": "sender",
          "type": "address"
        }
      ],
      "name": "RoleGranted",
      "type": "event"
    },
    {
      "anonymous": false,
      "inputs": [
        {
          "indexed": true,
          "internalType": "bytes32",
          "name": "role",
          "type": "bytes32"
        },
        {
          "indexed": true,
          "internalType": "address",
          "name": "account",
          "type": "address"
        },
        {
          "indexed": true,
          "internalType": "address",
          "name": "sender",
          "type": "address"
        }
      ],
      "name": "RoleRevoked",
      "type": "event"
    },
    {
      "anonymous": false,
      "inputs": [
        {
          "indexed": true,
          "internalType": "address",
          "name": "from",
          "type": "address"
        },
        {
          "indexed": true,
          "internalType": "address",
          "name": "to",
          "type": "address"
        },
        {
          "indexed": true,
          "internalType": "uint256",
          "name": "tokenId",
          "type": "uint256"
        }
      ],
      "name": "Transfer",
      "type": "event"
    },
    {
      "inputs": [],
      "name": "DEFAULT_ADMIN_ROLE",
      "outputs": [
        {
          "internalType": "bytes32",
          "name": "",
          "type": "bytes32"
        }
      ],
      "stateMutability": "view",
      "type": "function"
    },
    {
      "inputs": [],
      "name": "DOMAIN_SEPARATOR",
      "outputs": [
        {
          "internalType": "bytes32",
          "name": "",
          "type": "bytes32"
        }
      ],
      "stateMutability": "view",
      "type": "function"
    },
    {
      "inputs": [],
      "name": "MINTER_ROLE",
      "outputs": [
        {
          "internalType": "bytes32",
          "name": "",
          "type": "bytes32"
        }
      ],
      "stateMutability": "view",
      "type": "function"
    },
    {
      "inputs": [
        {
          "internalType": "address",
          "name": "to",
          "type": "address"
        },
        {
          "internalType": "uint256",
          "name": "tokenId",
          "type": "uint256"
        }
      ],
      "name": "approve",
      "outputs": [],
      "stateMutability": "nonpayable",
      "type": "function"
    },
    {
      "inputs": [
        {
          "internalType": "address",
          "name": "owner",
          "type": "address"
        }
      ],
      "name": "balanceOf",
      "outputs": [
        {
          "internalType": "uint256",
          "name": "",
          "type": "uint256"
        }
      ],
      "stateMutability": "view",
      "type": "function"
    },
    {
      "inputs": [],
      "name": "baseURI",
      "outputs": [
        {
          "internalType": "string",
          "name": "",
          "type": "string"
        }
      ],
      "stateMutability": "view",
      "type": "function"
    },
    {
      "inputs": [
        {
          "internalType": "uint256",
          "name": "tokenId",
          "type": "uint256"
        }
      ],
      "name": "burn",
      "outputs": [],
      "stateMutability": "nonpayable",
      "type": "function"
    },
    {
      "inputs": [
        {
          "internalType": "uint256[]",
          "name": "tokenIDs",
          "type": "uint256[]"
        }
      ],
      "name": "burnBatch",
      "outputs": [],
      "stateMutability": "nonpayable",
      "type": "function"
    },
    {
      "inputs": [
        {
          "internalType": "uint256",
          "name": "tokenId",
          "type": "uint256"
        }
      ],
      "name": "buyDRS",
      "outputs": [],
      "stateMutability": "payable",
      "type": "function"
    },
    {
      "inputs": [
        {
          "internalType": "uint256",
          "name": "tokenId",
          "type": "uint256"
        }
      ],
      "name": "buyDRSFive",
      "outputs": [],
      "stateMutability": "payable",
      "type": "function"
    },
    {
      "inputs": [
        {
          "internalType": "uint256",
          "name": "tokenId",
          "type": "uint256"
        }
      ],
      "name": "buyGME",
      "outputs": [],
      "stateMutability": "payable",
      "type": "function"
    },
    {
      "inputs": [
        {
          "internalType": "uint256",
          "name": "tokenId",
          "type": "uint256"
        }
      ],
      "name": "buyLaserThree",
      "outputs": [],
      "stateMutability": "payable",
      "type": "function"
    },
    {
      "inputs": [
        {
          "internalType": "uint256",
          "name": "tokenId",
          "type": "uint256"
        }
      ],
      "name": "buySpeedy",
      "outputs": [],
      "stateMutability": "payable",
      "type": "function"
    },
    {
      "inputs": [
        {
          "internalType": "uint256",
          "name": "tokenId",
          "type": "uint256"
        }
      ],
      "name": "buyTank",
      "outputs": [],
      "stateMutability": "payable",
      "type": "function"
    },
    {
      "inputs": [],
      "name": "contractURI",
      "outputs": [
        {
          "internalType": "string",
          "name": "",
          "type": "string"
        }
      ],
      "stateMutability": "view",
      "type": "function"
    },
    {
      "inputs": [],
      "name": "eip712Domain",
      "outputs": [
        {
          "internalType": "bytes1",
          "name": "fields",
          "type": "bytes1"
        },
        {
          "internalType": "string",
          "name": "name",
          "type": "string"
        },
        {
          "internalType": "string",
          "name": "version",
          "type": "string"
        },
        {
          "internalType": "uint256",
          "name": "chainId",
          "type": "uint256"
        },
        {
          "internalType": "address",
          "name": "verifyingContract",
          "type": "address"
        },
        {
          "internalType": "bytes32",
          "name": "salt",
          "type": "bytes32"
        },
        {
          "internalType": "uint256[]",
          "name": "extensions",
          "type": "uint256[]"
        }
      ],
      "stateMutability": "view",
      "type": "function"
    },
    {
      "inputs": [
        {
          "internalType": "uint256",
          "name": "tokenId",
          "type": "uint256"
        }
      ],
      "name": "exists",
      "outputs": [
        {
          "internalType": "bool",
          "name": "",
          "type": "bool"
        }
      ],
      "stateMutability": "view",
      "type": "function"
    },
    {
      "inputs": [],
      "name": "getAdmins",
      "outputs": [
        {
          "internalType": "address[]",
          "name": "",
          "type": "address[]"
        }
      ],
      "stateMutability": "view",
      "type": "function"
    },
    {
      "inputs": [
        {
          "internalType": "uint256",
          "name": "tokenId",
          "type": "uint256"
        }
      ],
      "name": "getApproved",
      "outputs": [
        {
          "internalType": "address",
          "name": "",
          "type": "address"
        }
      ],
      "stateMutability": "view",
      "type": "function"
    },
    {
      "inputs": [
        {
          "internalType": "bytes32",
          "name": "role",
          "type": "bytes32"
        }
      ],
      "name": "getRoleAdmin",
      "outputs": [
        {
          "internalType": "bytes32",
          "name": "",
          "type": "bytes32"
        }
      ],
      "stateMutability": "view",
      "type": "function"
    },
    {
      "inputs": [
        {
          "internalType": "bytes32",
          "name": "role",
          "type": "bytes32"
        },
        {
          "internalType": "uint256",
          "name": "index",
          "type": "uint256"
        }
      ],
      "name": "getRoleMember",
      "outputs": [
        {
          "internalType": "address",
          "name": "",
          "type": "address"
        }
      ],
      "stateMutability": "view",
      "type": "function"
    },
    {
      "inputs": [
        {
          "internalType": "bytes32",
          "name": "role",
          "type": "bytes32"
        }
      ],
      "name": "getRoleMemberCount",
      "outputs": [
        {
          "internalType": "uint256",
          "name": "",
          "type": "uint256"
        }
      ],
      "stateMutability": "view",
      "type": "function"
    },
    {
      "inputs": [
        {
          "internalType": "address",
          "name": "user",
          "type": "address"
        }
      ],
      "name": "grantMinterRole",
      "outputs": [],
      "stateMutability": "nonpayable",
      "type": "function"
    },
    {
      "inputs": [
        {
          "internalType": "bytes32",
          "name": "role",
          "type": "bytes32"
        },
        {
          "internalType": "address",
          "name": "account",
          "type": "address"
        }
      ],
      "name": "grantRole",
      "outputs": [],
      "stateMutability": "nonpayable",
      "type": "function"
    },
    {
      "inputs": [
        {
          "internalType": "bytes32",
          "name": "role",
          "type": "bytes32"
        },
        {
          "internalType": "address",
          "name": "account",
          "type": "address"
        }
      ],
      "name": "hasRole",
      "outputs": [
        {
          "internalType": "bool",
          "name": "",
          "type": "bool"
        }
      ],
      "stateMutability": "view",
      "type": "function"
    },
    {
      "inputs": [
        {
          "internalType": "address",
          "name": "owner",
          "type": "address"
        },
        {
          "internalType": "address",
          "name": "operator",
          "type": "address"
        }
      ],
      "name": "isApprovedForAll",
      "outputs": [
        {
          "internalType": "bool",
          "name": "",
          "type": "bool"
        }
      ],
      "stateMutability": "view",
      "type": "function"
    },
    {
      "inputs": [
        {
          "internalType": "address",
          "name": "to",
          "type": "address"
        },
        {
          "internalType": "uint256",
          "name": "tokenId",
          "type": "uint256"
        }
      ],
      "name": "mint",
      "outputs": [],
      "stateMutability": "nonpayable",
      "type": "function"
    },
    {
      "inputs": [
        {
          "components": [
            {
              "internalType": "address",
              "name": "to",
              "type": "address"
            },
            {
              "internalType": "uint256[]",
              "name": "tokenIds",
              "type": "uint256[]"
            }
          ],
          "internalType": "struct ERC721Hybrid.IDMint[]",
          "name": "mints",
          "type": "tuple[]"
        }
      ],
      "name": "mintBatch",
      "outputs": [],
      "stateMutability": "nonpayable",
      "type": "function"
    },
    {
      "inputs": [
        {
          "components": [
            {
              "internalType": "address",
              "name": "to",
              "type": "address"
            },
            {
              "internalType": "uint256",
              "name": "quantity",
              "type": "uint256"
            }
          ],
          "internalType": "struct ERC721Hybrid.Mint[]",
          "name": "mints",
          "type": "tuple[]"
        }
      ],
      "name": "mintBatchByQuantity",
      "outputs": [],
      "stateMutability": "nonpayable",
      "type": "function"
    },
    {
      "inputs": [],
      "name": "mintBatchByQuantityThreshold",
      "outputs": [
        {
          "internalType": "uint256",
          "name": "",
          "type": "uint256"
        }
      ],
      "stateMutability": "pure",
      "type": "function"
    },
    {
      "inputs": [
        {
          "internalType": "address",
          "name": "to",
          "type": "address"
        },
        {
          "internalType": "uint256",
          "name": "quantity",
          "type": "uint256"
        }
      ],
      "name": "mintByQuantity",
      "outputs": [],
      "stateMutability": "nonpayable",
      "type": "function"
    },
    {
      "inputs": [],
      "name": "name",
      "outputs": [
        {
          "internalType": "string",
          "name": "",
          "type": "string"
        }
      ],
      "stateMutability": "view",
      "type": "function"
    },
    {
      "inputs": [
        {
          "internalType": "uint256",
          "name": "tokenId",
          "type": "uint256"
        }
      ],
      "name": "nonces",
      "outputs": [
        {
          "internalType": "uint256",
          "name": "",
          "type": "uint256"
        }
      ],
      "stateMutability": "view",
      "type": "function"
    },
    {
      "inputs": [],
      "name": "operatorAllowlist",
      "outputs": [
        {
          "internalType": "contract IOperatorAllowlist",
          "name": "",
          "type": "address"
        }
      ],
      "stateMutability": "view",
      "type": "function"
    },
    {
      "inputs": [
        {
          "internalType": "uint256",
          "name": "tokenId",
          "type": "uint256"
        }
      ],
      "name": "ownerOf",
      "outputs": [
        {
          "internalType": "address",
          "name": "",
          "type": "address"
        }
      ],
      "stateMutability": "view",
      "type": "function"
    },
    {
      "inputs": [
        {
          "internalType": "address",
          "name": "spender",
          "type": "address"
        },
        {
          "internalType": "uint256",
          "name": "tokenId",
          "type": "uint256"
        },
        {
          "internalType": "uint256",
          "name": "deadline",
          "type": "uint256"
        },
        {
          "internalType": "bytes",
          "name": "sig",
          "type": "bytes"
        }
      ],
      "name": "permit",
      "outputs": [],
      "stateMutability": "nonpayable",
      "type": "function"
    },
    {
      "inputs": [
        {
          "internalType": "bytes32",
          "name": "role",
          "type": "bytes32"
        },
        {
          "internalType": "address",
          "name": "account",
          "type": "address"
        }
      ],
      "name": "renounceRole",
      "outputs": [],
      "stateMutability": "nonpayable",
      "type": "function"
    },
    {
      "inputs": [
        {
          "internalType": "address",
          "name": "user",
          "type": "address"
        }
      ],
      "name": "revokeMinterRole",
      "outputs": [],
      "stateMutability": "nonpayable",
      "type": "function"
    },
    {
      "inputs": [
        {
          "internalType": "bytes32",
          "name": "role",
          "type": "bytes32"
        },
        {
          "internalType": "address",
          "name": "account",
          "type": "address"
        }
      ],
      "name": "revokeRole",
      "outputs": [],
      "stateMutability": "nonpayable",
      "type": "function"
    },
    {
      "inputs": [
        {
          "internalType": "uint256",
          "name": "tokenId",
          "type": "uint256"
        },
        {
          "internalType": "uint256",
          "name": "salePrice",
          "type": "uint256"
        }
      ],
      "name": "royaltyInfo",
      "outputs": [
        {
          "internalType": "address",
          "name": "",
          "type": "address"
        },
        {
          "internalType": "uint256",
          "name": "",
          "type": "uint256"
        }
      ],
      "stateMutability": "view",
      "type": "function"
    },
    {
      "inputs": [
        {
          "internalType": "address",
          "name": "owner",
          "type": "address"
        },
        {
          "internalType": "uint256",
          "name": "tokenId",
          "type": "uint256"
        }
      ],
      "name": "safeBurn",
      "outputs": [],
      "stateMutability": "nonpayable",
      "type": "function"
    },
    {
      "inputs": [
        {
          "components": [
            {
              "internalType": "address",
              "name": "owner",
              "type": "address"
            },
            {
              "internalType": "uint256[]",
              "name": "tokenIds",
              "type": "uint256[]"
            }
          ],
          "internalType": "struct ERC721Hybrid.IDBurn[]",
          "name": "burns",
          "type": "tuple[]"
        }
      ],
      "name": "safeBurnBatch",
      "outputs": [],
      "stateMutability": "nonpayable",
      "type": "function"
    },
    {
      "inputs": [
        {
          "internalType": "address",
          "name": "to",
          "type": "address"
        },
        {
          "internalType": "uint256",
          "name": "tokenId",
          "type": "uint256"
        }
      ],
      "name": "safeMint",
      "outputs": [],
      "stateMutability": "nonpayable",
      "type": "function"
    },
    {
      "inputs": [
        {
          "components": [
            {
              "internalType": "address",
              "name": "to",
              "type": "address"
            },
            {
              "internalType": "uint256[]",
              "name": "tokenIds",
              "type": "uint256[]"
            }
          ],
          "internalType": "struct ERC721Hybrid.IDMint[]",
          "name": "mints",
          "type": "tuple[]"
        }
      ],
      "name": "safeMintBatch",
      "outputs": [],
      "stateMutability": "nonpayable",
      "type": "function"
    },
    {
      "inputs": [
        {
          "components": [
            {
              "internalType": "address",
              "name": "to",
              "type": "address"
            },
            {
              "internalType": "uint256",
              "name": "quantity",
              "type": "uint256"
            }
          ],
          "internalType": "struct ERC721Hybrid.Mint[]",
          "name": "mints",
          "type": "tuple[]"
        }
      ],
      "name": "safeMintBatchByQuantity",
      "outputs": [],
      "stateMutability": "nonpayable",
      "type": "function"
    },
    {
      "inputs": [
        {
          "internalType": "address",
          "name": "to",
          "type": "address"
        },
        {
          "internalType": "uint256",
          "name": "quantity",
          "type": "uint256"
        }
      ],
      "name": "safeMintByQuantity",
      "outputs": [],
      "stateMutability": "nonpayable",
      "type": "function"
    },
    {
      "inputs": [
        {
          "internalType": "address",
          "name": "from",
          "type": "address"
        },
        {
          "internalType": "address",
          "name": "to",
          "type": "address"
        },
        {
          "internalType": "uint256",
          "name": "tokenId",
          "type": "uint256"
        }
      ],
      "name": "safeTransferFrom",
      "outputs": [],
      "stateMutability": "nonpayable",
      "type": "function"
    },
    {
      "inputs": [
        {
          "internalType": "address",
          "name": "from",
          "type": "address"
        },
        {
          "internalType": "address",
          "name": "to",
          "type": "address"
        },
        {
          "internalType": "uint256",
          "name": "tokenId",
          "type": "uint256"
        },
        {
          "internalType": "bytes",
          "name": "_data",
          "type": "bytes"
        }
      ],
      "name": "safeTransferFrom",
      "outputs": [],
      "stateMutability": "nonpayable",
      "type": "function"
    },
    {
      "inputs": [
        {
          "components": [
            {
              "internalType": "address",
              "name": "from",
              "type": "address"
            },
            {
              "internalType": "address[]",
              "name": "tos",
              "type": "address[]"
            },
            {
              "internalType": "uint256[]",
              "name": "tokenIds",
              "type": "uint256[]"
            }
          ],
          "internalType": "struct ERC721Hybrid.TransferRequest",
          "name": "tr",
          "type": "tuple"
        }
      ],
      "name": "safeTransferFromBatch",
      "outputs": [],
      "stateMutability": "nonpayable",
      "type": "function"
    },
    {
      "inputs": [
        {
          "internalType": "address",
          "name": "operator",
          "type": "address"
        },
        {
          "internalType": "bool",
          "name": "approved",
          "type": "bool"
        }
      ],
      "name": "setApprovalForAll",
      "outputs": [],
      "stateMutability": "nonpayable",
      "type": "function"
    },
    {
      "inputs": [
        {
          "internalType": "string",
          "name": "baseURI_",
          "type": "string"
        }
      ],
      "name": "setBaseURI",
      "outputs": [],
      "stateMutability": "nonpayable",
      "type": "function"
    },
    {
      "inputs": [
        {
          "internalType": "string",
          "name": "_contractURI",
          "type": "string"
        }
      ],
      "name": "setContractURI",
      "outputs": [],
      "stateMutability": "nonpayable",
      "type": "function"
    },
    {
      "inputs": [
        {
          "internalType": "address",
          "name": "receiver",
          "type": "address"
        },
        {
          "internalType": "uint96",
          "name": "feeNumerator",
          "type": "uint96"
        }
      ],
      "name": "setDefaultRoyaltyReceiver",
      "outputs": [],
      "stateMutability": "nonpayable",
      "type": "function"
    },
    {
      "inputs": [
        {
          "internalType": "uint256",
          "name": "tokenId",
          "type": "uint256"
        },
        {
          "internalType": "address",
          "name": "receiver",
          "type": "address"
        },
        {
          "internalType": "uint96",
          "name": "feeNumerator",
          "type": "uint96"
        }
      ],
      "name": "setNFTRoyaltyReceiver",
      "outputs": [],
      "stateMutability": "nonpayable",
      "type": "function"
    },
    {
      "inputs": [
        {
          "internalType": "uint256[]",
          "name": "tokenIds",
          "type": "uint256[]"
        },
        {
          "internalType": "address",
          "name": "receiver",
          "type": "address"
        },
        {
          "internalType": "uint96",
          "name": "feeNumerator",
          "type": "uint96"
        }
      ],
      "name": "setNFTRoyaltyReceiverBatch",
      "outputs": [],
      "stateMutability": "nonpayable",
      "type": "function"
    },
    {
      "inputs": [
        {
          "internalType": "address",
          "name": "_operatorAllowlist",
          "type": "address"
        }
      ],
      "name": "setOperatorAllowlistRegistry",
      "outputs": [],
      "stateMutability": "nonpayable",
      "type": "function"
    },
    {
      "inputs": [
        {
          "internalType": "bytes4",
          "name": "interfaceId",
          "type": "bytes4"
        }
      ],
      "name": "supportsInterface",
      "outputs": [
        {
          "internalType": "bool",
          "name": "",
          "type": "bool"
        }
      ],
      "stateMutability": "view",
      "type": "function"
    },
    {
      "inputs": [],
      "name": "symbol",
      "outputs": [
        {
          "internalType": "string",
          "name": "",
          "type": "string"
        }
      ],
      "stateMutability": "view",
      "type": "function"
    },
    {
      "inputs": [
        {
          "internalType": "uint256",
          "name": "tokenId",
          "type": "uint256"
        }
      ],
      "name": "tokenURI",
      "outputs": [
        {
          "internalType": "string",
          "name": "",
          "type": "string"
        }
      ],
      "stateMutability": "view",
      "type": "function"
    },
    {
      "inputs": [],
      "name": "totalSupply",
      "outputs": [
        {
          "internalType": "uint256",
          "name": "",
          "type": "uint256"
        }
      ],
      "stateMutability": "view",
      "type": "function"
    },
    {
      "inputs": [
        {
          "internalType": "address",
          "name": "from",
          "type": "address"
        },
        {
          "internalType": "address",
          "name": "to",
          "type": "address"
        },
        {
          "internalType": "uint256",
          "name": "tokenId",
          "type": "uint256"
        }
      ],
      "name": "transferFrom",
      "outputs": [],
      "stateMutability": "nonpayable",
      "type": "function"
    }
  ],
  "bytecode": "0x61016060405260006013553480156200001757600080fd5b5060405162005fa838038062005fa88339810160408190526200003a916200068d565b87878787878787878787878787878787868681604051806040016040528060018152602001603160f81b81525083838181838381600690816200007e919062000820565b5060076200008d828262000820565b5050600160801b60095550600d620000a6838262000820565b50600e620000b5828262000820565b50620000ca93508592506015915050620001d5565b61012052620000db816016620001d5565b61014052815160208084019190912060e052815190820120610100524660a0526200016960e05161010051604080517f8b73c3c69bb8fe3d512ecc4cf759cc79239f7b179b0ffacaa9a75d522b39400f60208201529081019290925260608201524660808201523060a082015260009060c00160405160208183030381529060405280519060200120905090565b60805250503060c052506200018290506000896200020e565b6200018e828262000239565b62000199836200033e565b6019620001a7868262000820565b506018620001b6858262000820565b505050505050505050505050505050505050505050505050506200096a565b6000602083511015620001f557620001ed8362000437565b905062000208565b8162000202848262000820565b5060ff90505b92915050565b6200021a82826200047a565b60008281526001602052604090206200023490826200051b565b505050565b6127106001600160601b0382161115620002ad5760405162461bcd60e51b815260206004820152602a60248201527f455243323938313a20726f79616c7479206665652077696c6c206578636565646044820152692073616c65507269636560b01b60648201526084015b60405180910390fd5b6001600160a01b038216620003055760405162461bcd60e51b815260206004820152601960248201527f455243323938313a20696e76616c6964207265636569766572000000000000006044820152606401620002a4565b604080518082019091526001600160a01b039092168083526001600160601b039091166020909201829052600160a01b90910217600355565b6040516301ffc9a760e01b81526305a3b80960e01b60048201526001600160a01b038216906301ffc9a790602401602060405180830381865afa1580156200038a573d6000803e3d6000fd5b505050506040513d601f19601f82011682018060405250810190620003b09190620008ec565b620003ce5760405163d6f93fb760e01b815260040160405180910390fd5b600254604080516001600160a01b03928316815291831660208301527f3edc37a14cc8047c7c8a3f354311efe86c14848efd4e3765a3e1e57eea04ea76910160405180910390a1600280546001600160a01b0319166001600160a01b0392909216919091179055565b600080829050601f8151111562000465578260405163305a27a960e01b8152600401620002a4919062000910565b8051620004728262000945565b179392505050565b6000828152602081815260408083206001600160a01b038516845290915290205460ff1662000517576000828152602081815260408083206001600160a01b03851684529091529020805460ff19166001179055620004d63390565b6001600160a01b0316816001600160a01b0316837f2f8788117e7eff1d82e926ec794901d17c78024a50270940304540a733656f0d60405160405180910390a45b5050565b600062000532836001600160a01b03841662000539565b9392505050565b6000818152600183016020526040812054620005825750815460018181018455600084815260208082209093018490558454848252828601909352604090209190915562000208565b50600062000208565b80516001600160a01b0381168114620005a357600080fd5b919050565b634e487b7160e01b600052604160045260246000fd5b60005b83811015620005db578181015183820152602001620005c1565b50506000910152565b600082601f830112620005f657600080fd5b81516001600160401b0380821115620006135762000613620005a8565b604051601f8301601f19908116603f011681019082821181831017156200063e576200063e620005a8565b816040528381528660208588010111156200065857600080fd5b6200066b846020830160208901620005be565b9695505050505050565b80516001600160601b0381168114620005a357600080fd5b600080600080600080600080610100898b031215620006ab57600080fd5b620006b6896200058b565b60208a01519098506001600160401b0380821115620006d457600080fd5b620006e28c838d01620005e4565b985060408b0151915080821115620006f957600080fd5b620007078c838d01620005e4565b975060608b01519150808211156200071e57600080fd5b6200072c8c838d01620005e4565b965060808b01519150808211156200074357600080fd5b50620007528b828c01620005e4565b9450506200076360a08a016200058b565b92506200077360c08a016200058b565b91506200078360e08a0162000675565b90509295985092959890939650565b600181811c90821680620007a757607f821691505b602082108103620007c857634e487b7160e01b600052602260045260246000fd5b50919050565b601f8211156200023457600081815260208120601f850160051c81016020861015620007f75750805b601f850160051c820191505b81811015620008185782815560010162000803565b505050505050565b81516001600160401b038111156200083c576200083c620005a8565b62000854816200084d845462000792565b84620007ce565b602080601f8311600181146200088c5760008415620008735750858301515b600019600386901b1c1916600185901b17855562000818565b600085815260208120601f198616915b82811015620008bd578886015182559484019460019091019084016200089c565b5085821015620008dc5787850151600019600388901b60f8161c191681555b5050505050600190811b01905550565b600060208284031215620008ff57600080fd5b815180151581146200053257600080fd5b602081526000825180602084015262000931816040850160208701620005be565b601f01601f19169190910160400192915050565b80516020808301519190811015620007c85760001960209190910360031b1b16919050565b60805160a05160c05160e0516101005161012051610140516155e3620009c560003960006111820152600061115701526000611c1a01526000611bf201526000611b4d01526000611b7701526000611ba101526155e36000f3fe6080604052600436106103a15760003560e01c806369e2f0fb116101e7578063a217fddf1161010d578063d547741f116100a0578063e8a3d4851161006f578063e8a3d48514610aa6578063e985e9c514610abb578063eea9876814610adb578063ff0b9a461461047757600080fd5b8063d547741f14610a26578063e192785914610a46578063e4623c1b14610a66578063e4e18f6d14610a8657600080fd5b8063c87b56dd116100dc578063c87b56dd146109c4578063c9164a6914610622578063ca15c873146109e4578063d539139314610a0457600080fd5b8063a217fddf1461094f578063a22cb46514610964578063a701281614610984578063b88d4fde146109a457600080fd5b8063885e7a081161018557806395d89b411161015457806395d89b41146108da5780639e2641a3146108ef5780639f15d7001461090f578063a14481941461092f57600080fd5b8063885e7a081461085a5780639010d07c1461087a57806391d148541461089a578063938e3d7b146108ba57600080fd5b8063745a41bc116101c1578063745a41bc146107f257806374f16a8114610812578063802e10731461076a57806384b0196e1461083257600080fd5b806369e2f0fb1461079d5780636c0360eb146107bd57806370a08231146107d257600080fd5b8063315ed308116102cc57806342842e0e1161026a57806355f804b31161023957806355f804b31461072a578063567e40751461074a578063611c26481461076a5780636352211e1461077d57600080fd5b806342842e0e146106aa57806342966c68146106ca578063439aed34146106ea5780634f558e791461070a57600080fd5b80633644e515116102a65780633644e5151461063557806336568abe1461064a5780633dd1eb611461066a57806340c10f191461068a57600080fd5b8063315ed308146105e957806331ae450b146106005780633503bbea1461062257600080fd5b806318160ddd1161034457806329326f291161031357806329326f291461054a5780632a55205a1461056a5780632d2c5a8b146105a95780632f2ff15d146105c957600080fd5b806318160ddd146104c5578063234af046146104da57806323b872dd146104fa578063248a9ca31461051a57600080fd5b8063081812fc11610380578063081812fc1461041f578063095ea7b3146104575780630aebd8f214610477578063141a468c1461048a57600080fd5b80628ad946146103a657806301ffc9a7146103c857806306fdde03146103fd575b600080fd5b3480156103b257600080fd5b506103c66103c136600461481a565b610afb565b005b3480156103d457600080fd5b506103e86103e336600461486a565b610bd1565b60405190151581526020015b60405180910390f35b34801561040957600080fd5b50610412610be2565b6040516103f491906148d7565b34801561042b57600080fd5b5061043f61043a3660046148ea565b610bf1565b6040516001600160a01b0390911681526020016103f4565b34801561046357600080fd5b506103c661047236600461491a565b610c11565b6103c66104853660046148ea565b610c31565b34801561049657600080fd5b506104b76104a53660046148ea565b60009081526017602052604090205490565b6040519081526020016103f4565b3480156104d157600080fd5b506104b7610c6e565b3480156104e657600080fd5b506103c66104f5366004614988565b610c85565b34801561050657600080fd5b506103c66105153660046149c9565b610cac565b34801561052657600080fd5b506104b76105353660046148ea565b60009081526020819052604090206001015490565b34801561055657600080fd5b5060025461043f906001600160a01b031681565b34801561057657600080fd5b5061058a610585366004614a05565b610cce565b604080516001600160a01b0390931683526020830191909152016103f4565b3480156105b557600080fd5b506103c66105c4366004614a27565b610d7c565b3480156105d557600080fd5b506103c66105e4366004614a9b565b610d9e565b3480156105f557600080fd5b50600160801b6104b7565b34801561060c57600080fd5b50610615610dc3565b6040516103f49190614ac7565b6103c66106303660046148ea565b610e71565b34801561064157600080fd5b506104b7610e98565b34801561065657600080fd5b506103c6610665366004614a9b565b610ea2565b34801561067657600080fd5b506103c6610685366004614b14565b610f1c565b34801561069657600080fd5b506103c66106a536600461491a565b610f3f565b3480156106b657600080fd5b506103c66106c53660046149c9565b610f61565b3480156106d657600080fd5b506103c66106e53660046148ea565b610f7c565b3480156106f657600080fd5b506103c6610705366004614b46565b610fb0565b34801561071657600080fd5b506103e86107253660046148ea565b610fd9565b34801561073657600080fd5b506103c6610745366004614c0d565b610fe4565b34801561075657600080fd5b506103c661076536600461491a565b610ffb565b6103c66107783660046148ea565b61101d565b34801561078957600080fd5b5061043f6107983660046148ea565b611044565b3480156107a957600080fd5b506103c66107b8366004614b14565b611064565b3480156107c957600080fd5b50610412611087565b3480156107de57600080fd5b506104b76107ed366004614b14565b611115565b3480156107fe57600080fd5b506103c661080d366004614c75565b611133565b34801561081e57600080fd5b506103c661082d366004614988565b61113f565b34801561083e57600080fd5b50610847611149565b6040516103f49796959493929190614cd5565b34801561086657600080fd5b506103c6610875366004614d6b565b6111d2565b34801561088657600080fd5b5061043f610895366004614a05565b6111e7565b3480156108a657600080fd5b506103e86108b5366004614a9b565b611206565b3480156108c657600080fd5b506103c66108d5366004614c0d565b61122f565b3480156108e657600080fd5b50610412611246565b3480156108fb57600080fd5b506103c661090a366004614988565b611250565b34801561091b57600080fd5b506103c661092a36600461491a565b611272565b34801561093b57600080fd5b506103c661094a36600461491a565b6112cc565b34801561095b57600080fd5b506104b7600081565b34801561097057600080fd5b506103c661097f366004614da3565b6112ee565b34801561099057600080fd5b506103c661099f366004614dda565b61143f565b3480156109b057600080fd5b506103c66109bf366004614e3e565b61149f565b3480156109d057600080fd5b506104126109df3660046148ea565b6114c8565b3480156109f057600080fd5b506104b76109ff3660046148ea565b6114d3565b348015610a1057600080fd5b506104b76a4d494e5445525f524f4c4560a81b81565b348015610a3257600080fd5b506103c6610a41366004614a9b565b6114ea565b348015610a5257600080fd5b506103c6610a61366004614a27565b61150f565b348015610a7257600080fd5b506103c6610a81366004614988565b611531565b348015610a9257600080fd5b506103c6610aa1366004614b14565b61156f565b348015610ab257600080fd5b50610412611583565b348015610ac757600080fd5b506103e8610ad6366004614e8d565b611590565b348015610ae757600080fd5b506103c6610af636600461491a565b6115c0565b610b086020820182614eb7565b9050610b176040830183614eb7565b905014610b375760405163359a1bc360e01b815260040160405180910390fd5b60005b610b476040830183614eb7565b9050811015610bcd57610bbb610b606020840184614b14565b610b6d6020850185614eb7565b84818110610b7d57610b7d614f00565b9050602002016020810190610b929190614b14565b610b9f6040860186614eb7565b85818110610baf57610baf614f00565b90506020020135610f61565b80610bc581614f2c565b915050610b3a565b5050565b6000610bdc826115e2565b92915050565b6060610bec611607565b905090565b6000600160801b821015610c0857610bdc82611699565b610bdc826116c0565b600160801b811015610c2757610bcd828261174b565b610bcd828261185b565b66071afd498d0000341015610c615760405162461bcd60e51b8152600401610c5890614f45565b60405180910390fd5b610c6b3382611963565b50565b6000601354610c7b6119e6565b610bec9190614f74565b6a4d494e5445525f524f4c4560a81b610c9d81611a02565b610ca78383611a0c565b505050565b600160801b811015610cc357610ca7838383611a73565b610ca7838383611aa3565b60008281526004602090815260408083208151808301909252546001600160a01b038116808352600160a01b9091046001600160601b0316928201929092528291610d435750604080518082019091526003546001600160a01b0381168252600160a01b90046001600160601b031660208201525b602081015160009061271090610d62906001600160601b031687614f87565b610d6c9190614f9e565b91519350909150505b9250929050565b6a4d494e5445525f524f4c4560a81b610d9481611a02565b610ca78383611ac8565b600082815260208190526040902060010154610db981611a02565b610ca78383611b1e565b60606000610dd0816114d3565b90506000816001600160401b03811115610dec57610dec614b82565b604051908082528060200260200182016040528015610e15578160200160208202803683370190505b50905060005b82811015610e6a57610e2e6000826111e7565b828281518110610e4057610e40614f00565b6001600160a01b039092166020928302919091019091015280610e6281614f2c565b915050610e1b565b5092915050565b66038d7ea4c68000341015610c615760405162461bcd60e51b8152600401610c5890614f45565b6000610bec611b40565b6001600160a01b0381163314610f125760405162461bcd60e51b815260206004820152602f60248201527f416363657373436f6e74726f6c3a2063616e206f6e6c792072656e6f756e636560448201526e103937b632b9903337b91039b2b63360891b6064820152608401610c58565b610bcd8282611c6b565b6000610f2781611a02565b610bcd6a4d494e5445525f524f4c4560a81b83610d9e565b6a4d494e5445525f524f4c4560a81b610f5781611a02565b610ca78383611c8d565b610ca78383836040518060200160405280600081525061149f565b610f87335b82611d10565b610fa757604051630247e3a960e01b815260048101829052602401610c58565b610c6b81611d39565b6a4d494e5445525f524f4c4560a81b610fc881611a02565b610fd3848484611d8c565b50505050565b6000610bdc82611e57565b6000610fef81611a02565b6019610ca78382615040565b6a4d494e5445525f524f4c4560a81b61101381611a02565b610ca78383611eb4565b660aa87bee538000341015610c615760405162461bcd60e51b8152600401610c5890614f45565b6000600160801b82101561105b57610bdc82611ebe565b610bdc82611f1e565b600061106f81611a02565b610bcd6a4d494e5445525f524f4c4560a81b836114ea565b6019805461109490614fc0565b80601f01602080910402602001604051908101604052809291908181526020018280546110c090614fc0565b801561110d5780601f106110e25761010080835404028352916020019161110d565b820191906000526020600020905b8154815290600101906020018083116110f057829003601f168201915b505050505081565b600061112082611f32565b61112983611ffd565b610bdc9190614f74565b610fd384848484612083565b610bcd828261216c565b60006060808280808361117d7f00000000000000000000000000000000000000000000000000000000000000006015612217565b6111a87f00000000000000000000000000000000000000000000000000000000000000006016612217565b60408051600080825260208201909252600f60f81b9b939a50919850469750309650945092509050565b60006111dd81611a02565b610ca783836122bb565b60008281526001602052604081206111ff9083612375565b9392505050565b6000918252602082815260408084206001600160a01b0393909316845291905290205460ff1690565b600061123a81611a02565b6018610ca78382615040565b6060610bec612381565b6a4d494e5445525f524f4c4560a81b61126881611a02565b610ca78383612390565b600061127d82611044565b9050826001600160a01b0316816001600160a01b0316146112c357604051634fefd56160e01b8152600481018390526001600160a01b0382166024820152604401610c58565b610ca782610f7c565b6a4d494e5445525f524f4c4560a81b6112e481611a02565b610ca78383611963565b81333b1580159061136857506002546040516305a3b80960e01b81523360048201526001600160a01b03909116906305a3b80990602401602060405180830381865afa158015611342573d6000803e3d6000fd5b505050506040513d601f19601f8201168201806040525081019061136691906150ff565b155b156113885760405163f6fa4cbd60e01b8152336004820152602401610c58565b6001600160a01b0381163b1580159061140c57506002546040516305a3b80960e01b81526001600160a01b038381166004830152909116906305a3b80990602401602060405180830381865afa1580156113e6573d6000803e3d6000fd5b505050506040513d601f19601f8201168201806040525081019061140a91906150ff565b155b15611435576040516341b8d58160e11b81526001600160a01b0382166004820152602401610c58565b610ca783836123f7565b6a4d494e5445525f524f4c4560a81b61145781611a02565b60005b848110156114975761148586868381811061147757611477614f00565b905060200201358585611d8c565b8061148f81614f2c565b91505061145a565b505050505050565b600160801b8210156114bc576114b784848484612401565b610fd3565b610fd384848484612434565b6060610bdc82612459565b6000818152600160205260408120610bdc906124bf565b60008281526020819052604090206001015461150581611a02565b610ca78383611c6b565b6a4d494e5445525f524f4c4560a81b61152781611a02565b610ca783836124c9565b60005b81811015610ca75761155d83838381811061155157611551614f00565b90506020020135610f7c565b8061156781614f2c565b915050611534565b600061157a81611a02565b610bcd8261251f565b6018805461109490614fc0565b6001600160a01b03808316600090815260126020908152604080832093851683529290529081205460ff166111ff565b6a4d494e5445525f524f4c4560a81b6115d881611a02565b610ca78383612614565b60006001600160e01b03198216635604e22560e01b1480610bdc5750610bdc8261261e565b6060600d805461161690614fc0565b80601f016020809104026020016040519081016040528092919081815260200182805461164290614fc0565b801561168f5780601f106116645761010080835404028352916020019161168f565b820191906000526020600020905b81548152906001019060200180831161167257829003601f168201915b5050505050905090565b60006116a482612629565b506000908152601160205260409020546001600160a01b031690565b60006116cb82611e57565b61172f5760405162461bcd60e51b815260206004820152602f60248201527f4552433732315073693a20617070726f76656420717565727920666f72206e6f60448201526e3732bc34b9ba32b73a103a37b5b2b760891b6064820152608401610c58565b506000908152600a60205260409020546001600160a01b031690565b600061175682611ebe565b9050806001600160a01b0316836001600160a01b0316036117c35760405162461bcd60e51b815260206004820152602160248201527f4552433732313a20617070726f76616c20746f2063757272656e74206f776e656044820152603960f91b6064820152608401610c58565b336001600160a01b03821614806117df57506117df8133611590565b6118515760405162461bcd60e51b815260206004820152603d60248201527f4552433732313a20617070726f76652063616c6c6572206973206e6f7420746f60448201527f6b656e206f776e6572206f7220617070726f76656420666f7220616c6c0000006064820152608401610c58565b610ca78383612679565b600061186682611044565b9050806001600160a01b0316836001600160a01b0316036118d55760405162461bcd60e51b8152602060048201526024808201527f4552433732315073693a20617070726f76616c20746f2063757272656e74206f6044820152633bb732b960e11b6064820152608401610c58565b336001600160a01b03821614806118f157506118f18133611590565b6118515760405162461bcd60e51b815260206004820152603b60248201527f4552433732315073693a20617070726f76652063616c6c6572206973206e6f7460448201527f206f776e6572206e6f7220617070726f76656420666f7220616c6c00000000006064820152608401610c58565b600160801b811061198a5760405163b73c99f560e01b815260048101829052602401610c58565b600881901c600090815260146020526040902054600160ff83161b16156119c7576040516305dcda1160e51b815260048101829052602401610c58565b601380549060006119d783614f2c565b9190505550610bcd82826127ca565b60006119f06127e4565b6119f861284a565b610bec919061511c565b610c6b813361285e565b60005b81811015610ca75736838383818110611a2a57611a2a614f00565b9050602002810190611a3c919061512f565b9050611a60611a4e6020830183614b14565b611a5b6020840184614eb7565b6128b7565b5080611a6b81614f2c565b915050611a0f565b611a7c33610f81565b611a985760405162461bcd60e51b8152600401610c589061514f565b610ca78383836128f6565b611aac33610f81565b611a985760405162461bcd60e51b8152600401610c589061519c565b60005b81811015610ca75736838383818110611ae657611ae6614f00565b604002919091019150611b0b9050611b016020830183614b14565b8260200135611eb4565b5080611b1681614f2c565b915050611acb565b611b288282612afd565b6000828152600160205260409020610ca79082612b81565b6000306001600160a01b037f000000000000000000000000000000000000000000000000000000000000000016148015611b9957507f000000000000000000000000000000000000000000000000000000000000000046145b15611bc357507f000000000000000000000000000000000000000000000000000000000000000090565b610bec604080517f8b73c3c69bb8fe3d512ecc4cf759cc79239f7b179b0ffacaa9a75d522b39400f60208201527f0000000000000000000000000000000000000000000000000000000000000000918101919091527f000000000000000000000000000000000000000000000000000000000000000060608201524660808201523060a082015260009060c00160405160208183030381529060405280519060200120905090565b611c758282612b96565b6000828152600160205260409020610ca79082612bfb565b600160801b8110611cb45760405163b73c99f560e01b815260048101829052602401610c58565b600881901c600090815260146020526040902054600160ff83161b1615611cf1576040516305dcda1160e51b815260048101829052602401610c58565b60138054906000611d0183614f2c565b9190505550610bcd8282612c10565b6000600160801b821015611d2f57611d288383612d6b565b9050610bdc565b6111ff8383612dca565b600160801b811015611d8357611d4e81612e8f565b600881901c60009081526014602052604081208054600160ff85161b1790556013805491611d7b836151f0565b919050555050565b610c6b81612f12565b6127106001600160601b0382161115611db75760405162461bcd60e51b8152600401610c5890615207565b6001600160a01b038216611e0d5760405162461bcd60e51b815260206004820152601b60248201527f455243323938313a20496e76616c696420706172616d657465727300000000006044820152606401610c58565b6040805180820182526001600160a01b0393841681526001600160601b0392831660208083019182526000968752600490529190942093519051909116600160a01b029116179055565b6000600160801b821015611eab576000828152600f60205260409020546001600160a01b031615801590610bdc5750600882901c600090815260146020526040902054600160ff84161b1615151592915050565b610bdc82612f54565b610bcd8282612f89565b6000818152600f60205260408120546001600160a01b031680610bdc5760405162461bcd60e51b8152602060048201526018602482015277115490cdcc8c4e881a5b9d985b1a59081d1bdad95b88125160421b6044820152606401610c58565b600080611f2a83612fa3565b509392505050565b60006001600160a01b038216611fa05760405162461bcd60e51b815260206004820152602d60248201527f4552433732315073693a2062616c616e636520717565727920666f722074686560448201526c207a65726f206164647265737360981b6064820152608401610c58565b6000600160801b5b600954811015610e6a57611fbb81611e57565b15611fed57611fc981611044565b6001600160a01b0316846001600160a01b031603611fed57611fea82614f2c565b91505b611ff681614f2c565b9050611fa8565b60006001600160a01b0382166120675760405162461bcd60e51b815260206004820152602960248201527f4552433732313a2061646472657373207a65726f206973206e6f7420612076616044820152683634b21037bbb732b960b91b6064820152608401610c58565b506001600160a01b031660009081526010602052604090205490565b428210156120a45760405163068568f360e21b815260040160405180910390fd5b60006120b185858561303a565b90506120c66120bf85611044565b8284613113565b156120db576120d58585612679565b50610fd3565b600082516040036121225761211b826120f7856000602061321d565b61210090615251565b61210d866020604061321d565b61211690615251565b61332a565b905061214e565b82516041036121355761211b8284613347565b604051638baa579f60e01b815260040160405180910390fd5b6121588186613363565b15612135576121678686612679565b611497565b60005b81811015610ca7573683838381811061218a5761218a614f00565b905060200281019061219c919061512f565b905060005b6121ae6020830183614eb7565b9050811015612202576121f06121c76020840184614b14565b6121d46020850185614eb7565b848181106121e4576121e4614f00565b90506020020135611272565b806121fa81614f2c565b9150506121a1565b5050808061220f90614f2c565b91505061216f565b606060ff831461222a57611d2883613382565b81805461223690614fc0565b80601f016020809104026020016040519081016040528092919081815260200182805461226290614fc0565b80156122af5780601f10612284576101008083540402835291602001916122af565b820191906000526020600020905b81548152906001019060200180831161229257829003601f168201915b50505050509050610bdc565b6127106001600160601b03821611156122e65760405162461bcd60e51b8152600401610c5890615207565b6001600160a01b03821661233c5760405162461bcd60e51b815260206004820152601960248201527f455243323938313a20696e76616c6964207265636569766572000000000000006044820152606401610c58565b604080518082019091526001600160a01b039092168083526001600160601b039091166020909201829052600160a01b90910217600355565b60006111ff83836133c1565b6060600e805461161690614fc0565b60005b81811015610ca757368383838181106123ae576123ae614f00565b90506020028101906123c0919061512f565b90506123e46123d26020830183614b14565b6123df6020840184614eb7565b6133eb565b50806123ef81614f2c565b915050612393565b610bcd828261342a565b61240c335b83611d10565b6124285760405162461bcd60e51b8152600401610c589061514f565b610fd384848484613435565b61243d33612406565b6124285760405162461bcd60e51b8152600401610c589061519c565b606061246482612629565b600061246e613459565b9050600081511161248e57604051806020016040528060008152506111ff565b8061249884613468565b6040516020016124a9929190615275565b6040516020818303038152906040529392505050565b6000610bdc825490565b60005b81811015610ca757368383838181106124e7576124e7614f00565b60400291909101915061250c90506125026020830183614b14565b8260200135612614565b508061251781614f2c565b9150506124cc565b6040516301ffc9a760e01b81526305a3b80960e01b60048201526001600160a01b038216906301ffc9a790602401602060405180830381865afa15801561256a573d6000803e3d6000fd5b505050506040513d601f19601f8201168201806040525081019061258e91906150ff565b6125ab5760405163d6f93fb760e01b815260040160405180910390fd5b600254604080516001600160a01b03928316815291831660208301527f3edc37a14cc8047c7c8a3f354311efe86c14848efd4e3765a3e1e57eea04ea76910160405180910390a1600280546001600160a01b0319166001600160a01b0392909216919091179055565b610bcd82826134fa565b6000610bdc82613673565b61263281611e57565b610c6b5760405162461bcd60e51b8152602060048201526018602482015277115490cdcc8c4e881a5b9d985b1a59081d1bdad95b88125160421b6044820152606401610c58565b81333b158015906126f357506002546040516305a3b80960e01b81523360048201526001600160a01b03909116906305a3b80990602401602060405180830381865afa1580156126cd573d6000803e3d6000fd5b505050506040513d601f19601f820116820180604052508101906126f191906150ff565b155b156127135760405163f6fa4cbd60e01b8152336004820152602401610c58565b6001600160a01b0381163b1580159061279757506002546040516305a3b80960e01b81526001600160a01b038381166004830152909116906305a3b80990602401602060405180830381865afa158015612771573d6000803e3d6000fd5b505050506040513d601f19601f8201168201806040525081019061279591906150ff565b155b156127c0576040516341b8d58160e11b81526001600160a01b0382166004820152602401610c58565b610ca783836136b3565b610bcd8282604051806020016040528060008152506136d3565b600954600090600160781b9082906128009060081c6001614f74565b9050815b81811015612844576000818152600c6020526040902054612824816136de565b61282e9086614f74565b945050808061283c90614f2c565b915050612804565b50505090565b6000600160801b600954610bec919061511c565b6128688282611206565b610bcd57612875816136fd565b61288083602061370f565b6040516020016128919291906152a4565b60408051601f198184030181529082905262461bcd60e51b8252610c58916004016148d7565b60005b81811015610fd3576128e4848484848181106128d8576128d8614f00565b90506020020135611963565b806128ee81614f2c565b9150506128ba565b828233321480159061297157506002546040516305a3b80960e01b81523360048201526001600160a01b03909116906305a3b80990602401602060405180830381865afa15801561294b573d6000803e3d6000fd5b505050506040513d601f19601f8201168201806040525081019061296f91906150ff565b155b156129915760405163937db65f60e01b8152336004820152602401610c58565b6001600160a01b0382163b15801590612a1557506002546040516305a3b80960e01b81526001600160a01b038481166004830152909116906305a3b80990602401602060405180830381865afa1580156129ef573d6000803e3d6000fd5b505050506040513d601f19601f82011682018060405250810190612a1391906150ff565b155b15612a3e5760405163f934453160e01b81526001600160a01b0383166004820152602401610c58565b6001600160a01b0381163b15801590612ac257506002546040516305a3b80960e01b81526001600160a01b038381166004830152909116906305a3b80990602401602060405180830381865afa158015612a9c573d6000803e3d6000fd5b505050506040513d601f19601f82011682018060405250810190612ac091906150ff565b155b15612aeb57604051632a67242160e11b81526001600160a01b0382166004820152602401610c58565b612af68585856138aa565b5050505050565b612b078282611206565b610bcd576000828152602081815260408083206001600160a01b03851684529091529020805460ff19166001179055612b3d3390565b6001600160a01b0316816001600160a01b0316837f2f8788117e7eff1d82e926ec794901d17c78024a50270940304540a733656f0d60405160405180910390a45050565b60006111ff836001600160a01b0384166138d4565b612ba08282611206565b15610bcd576000828152602081815260408083206001600160a01b0385168085529252808320805460ff1916905551339285917ff6391f5c32d9c69d2a47ea670b442974b53935d1edc7fd64eb21e047a839171b9190a45050565b60006111ff836001600160a01b038416613923565b6001600160a01b038216612c665760405162461bcd60e51b815260206004820181905260248201527f4552433732313a206d696e7420746f20746865207a65726f20616464726573736044820152606401610c58565b612c6f81611e57565b15612cbc5760405162461bcd60e51b815260206004820152601c60248201527f4552433732313a20746f6b656e20616c7265616479206d696e746564000000006044820152606401610c58565b612cc581611e57565b15612d125760405162461bcd60e51b815260206004820152601c60248201527f4552433732313a20746f6b656e20616c7265616479206d696e746564000000006044820152606401610c58565b6001600160a01b038216600081815260106020908152604080832080546001019055848352600f90915280822080546001600160a01b0319168417905551839291906000805160206154b7833981519152908290a45050565b600080612d7783611ebe565b9050806001600160a01b0316846001600160a01b03161480612d9e5750612d9e8185611590565b80612dc25750836001600160a01b0316612db784610bf1565b6001600160a01b0316145b949350505050565b6000612dd582611e57565b612e395760405162461bcd60e51b815260206004820152602f60248201527f4552433732315073693a206f70657261746f7220717565727920666f72206e6f60448201526e3732bc34b9ba32b73a103a37b5b2b760891b6064820152608401610c58565b6000612e4483611044565b9050806001600160a01b0316846001600160a01b03161480612e7f5750836001600160a01b0316612e7484610bf1565b6001600160a01b0316145b80612dc25750612dc28185611590565b6000612e9a82611ebe565b9050612ea582611ebe565b600083815260116020908152604080832080546001600160a01b03199081169091556001600160a01b038516808552601084528285208054600019019055878552600f909352818420805490911690555192935084926000805160206154b7833981519152908390a45050565b6000612f1d82611044565b9050612f2a600c83613a16565b60405182906000906001600160a01b038416906000805160206154b7833981519152908390a45050565b600881901c6000908152600c6020526040812054600160ff1b60ff84161c1615612f8057506000919050565b610bdc82613a42565b610bcd828260405180602001604052806000815250613a61565b600080612faf83611e57565b6130105760405162461bcd60e51b815260206004820152602c60248201527f4552433732315073693a206f776e657220717565727920666f72206e6f6e657860448201526b34b9ba32b73a103a37b5b2b760a11b6064820152608401610c58565b61301983613aa2565b6000818152600860205260409020546001600160a01b031694909350915050565b6000612dc26040516020016130a890660a0cae4dad2e8560cb1b81527f61646472657373207370656e6465722c75696e7432353620746f6b656e49642c60078201527f75696e74323536206e6f6e63652c75696e7432353620646561646c696e652900602782015260460190565b60408051808303601f19018152828252805160209182012060008881526017835283902054918401526001600160a01b0388169183019190915260608201869052608082015260a0810184905260c00160405160208183030381529060405280519060200120613aaf565b6000806000856001600160a01b0316631626ba7e60e01b868660405160240161313d929190615319565b60408051601f198184030181529181526020820180516001600160e01b03166001600160e01b031990941693909317909252905161317b9190615332565b600060405180830381855afa9150503d80600081146131b6576040519150601f19603f3d011682016040523d82523d6000602084013e6131bb565b606091505b50915091508180156131ce575080516020145b15613211576000818060200190518101906131e99190615344565b90506374eca2c160e11b6001600160e01b031982160161320f57600193505050506111ff565b505b50600095945050505050565b60608161322b81601f614f74565b101561326a5760405162461bcd60e51b815260206004820152600e60248201526d736c6963655f6f766572666c6f7760901b6044820152606401610c58565b6132748284614f74565b845110156132b85760405162461bcd60e51b8152602060048201526011602482015270736c6963655f6f75744f66426f756e647360781b6044820152606401610c58565b6060821580156132d75760405191506000825260208201604052613321565b6040519150601f8416801560200281840101858101878315602002848b0101015b818310156133105780518352602092830192016132f8565b5050858452601f01601f1916604052505b50949350505050565b600080600061333a868686613adc565b9150915061332181613b15565b60008060006133568585613c5f565b91509150611f2a81613b15565b60006001600160a01b038316158015906111ff57506111ff8383611d10565b6060600061338f83613ca1565b604080516020808252818301909252919250600091906020820181803683375050509182525060208101929092525090565b60008260000182815481106133d8576133d8614f00565b9060005260206000200154905092915050565b60005b81811015610fd3576134188484848481811061340c5761340c614f00565b90506020020135611c8d565b8061342281614f2c565b9150506133ee565b610bcd338383613cc9565b600160801b82101561344d576114b784848484613d97565b610fd384848484613dca565b60606019805461161690614fc0565b6060600061347583613de3565b60010190506000816001600160401b0381111561349457613494614b82565b6040519080825280601f01601f1916602001820160405280156134be576020820181803683370190505b5090508181016020015b600019016f181899199a1a9b1b9c1cb0b131b232b360811b600a86061a8153600a85049450846134c857509392505050565b600061350560095490565b9050600082116135655760405162461bcd60e51b815260206004820152602560248201527f4552433732315073693a207175616e74697479206d7573742062652067726561604482015264074657220360dc1b6064820152608401610c58565b6001600160a01b0383166135c75760405162461bcd60e51b815260206004820152602360248201527f4552433732315073693a206d696e7420746f20746865207a65726f206164647260448201526265737360e81b6064820152608401610c58565b81600960008282546135d99190614f74565b9091555050600081815260086020526040902080546001600160a01b0319166001600160a01b038516179055613610600582613a16565b60008061361d8484614f74565b90506001600160a01b0385169150828260006000805160206154b7833981519152600080a4600183015b81811461366d57808360006000805160206154b7833981519152600080a4600101613647565b50612af6565b60006001600160e01b031982166380ac58cd60e01b14806136a457506001600160e01b03198216635b5e139f60e01b145b80610bdc5750610bdc82613ebb565b600160801b8110156136c957610bcd8282613efb565b610bcd8282613f69565b610ca7838383613f9e565b60005b81156136f8576000198201909116906001016136e1565b919050565b6060610bdc6001600160a01b03831660145b6060600061371e836002614f87565b613729906002614f74565b6001600160401b0381111561374057613740614b82565b6040519080825280601f01601f19166020018201604052801561376a576020820181803683370190505b509050600360fc1b8160008151811061378557613785614f00565b60200101906001600160f81b031916908160001a905350600f60fb1b816001815181106137b4576137b4614f00565b60200101906001600160f81b031916908160001a90535060006137d8846002614f87565b6137e3906001614f74565b90505b600181111561385b576f181899199a1a9b1b9c1cb0b131b232b360811b85600f166010811061381757613817614f00565b1a60f81b82828151811061382d5761382d614f00565b60200101906001600160f81b031916908160001a90535060049490941c93613854816151f0565b90506137e6565b5083156111ff5760405162461bcd60e51b815260206004820181905260248201527f537472696e67733a20686578206c656e67746820696e73756666696369656e746044820152606401610c58565b60008181526017602052604081208054916138c483614f2c565b9190505550610ca7838383613fd1565b600081815260018301602052604081205461391b57508154600181810184556000848152602080822090930184905584548482528286019093526040902091909155610bdc565b506000610bdc565b60008181526001830160205260408120548015613a0c57600061394760018361511c565b855490915060009061395b9060019061511c565b90508181146139c057600086600001828154811061397b5761397b614f00565b906000526020600020015490508087600001848154811061399e5761399e614f00565b6000918252602080832090910192909255918252600188019052604090208390555b85548690806139d1576139d1615361565b600190038181906000526020600020016000905590558560010160008681526020019081526020016000206000905560019350505050610bdc565b6000915050610bdc565b600881901c600090815260209290925260409091208054600160ff1b60ff9093169290921c9091179055565b6000613a4d60095490565b82108015610bdc575050600160801b111590565b6000613a6c60095490565b9050613a7884846134fa565b613a86600085838686613ff3565b610fd35760405162461bcd60e51b8152600401610c5890615377565b6000610bdc60058361412a565b6000610bdc613abc611b40565b8360405161190160f01b8152600281019290925260228201526042902090565b6000806001600160ff1b03831681613af960ff86901c601b614f74565b9050613b0787828885614222565b935093505050935093915050565b6000816004811115613b2957613b296153cc565b03613b315750565b6001816004811115613b4557613b456153cc565b03613b925760405162461bcd60e51b815260206004820152601860248201527f45434453413a20696e76616c6964207369676e617475726500000000000000006044820152606401610c58565b6002816004811115613ba657613ba66153cc565b03613bf35760405162461bcd60e51b815260206004820152601f60248201527f45434453413a20696e76616c6964207369676e6174757265206c656e677468006044820152606401610c58565b6003816004811115613c0757613c076153cc565b03610c6b5760405162461bcd60e51b815260206004820152602260248201527f45434453413a20696e76616c6964207369676e6174757265202773272076616c604482015261756560f01b6064820152608401610c58565b6000808251604103613c955760208301516040840151606085015160001a613c8987828585614222565b94509450505050610d75565b50600090506002610d75565b600060ff8216601f811115610bdc57604051632cd44ac360e21b815260040160405180910390fd5b816001600160a01b0316836001600160a01b031603613d2a5760405162461bcd60e51b815260206004820152601960248201527f4552433732313a20617070726f766520746f2063616c6c6572000000000000006044820152606401610c58565b6001600160a01b03838116600081815260126020908152604080832094871680845294825291829020805460ff191686151590811790915591519182527f17307eab39ab6107e8899845ad3d59bd9653f200f220920489ca2b5937696c31910160405180910390a3505050565b613da28484846128f6565b613dae848484846142e6565b610fd35760405162461bcd60e51b8152600401610c58906153e2565b613dd58484846128f6565b613a86848484600185613ff3565b60008072184f03e93ff9f4daa797ed6e38ed64bf6a1f0160401b8310613e225772184f03e93ff9f4daa797ed6e38ed64bf6a1f0160401b830492506040015b6d04ee2d6d415b85acef81000000008310613e4e576d04ee2d6d415b85acef8100000000830492506020015b662386f26fc100008310613e6c57662386f26fc10000830492506010015b6305f5e1008310613e84576305f5e100830492506008015b6127108310613e9857612710830492506004015b60648310613eaa576064830492506002015b600a8310610bdc5760010192915050565b60006001600160e01b031982166380ac58cd60e01b1480613eec57506001600160e01b03198216635b5e139f60e01b145b80610bdc5750610bdc826143df565b600081815260116020526040902080546001600160a01b0319166001600160a01b0384169081179091558190613f3082611ebe565b6001600160a01b03167f8c5be1e5ebec7d5bd14f71427d1e84f3dd0314c0f7b2291e5b200ac8c7c3b92560405160405180910390a45050565b6000818152600a6020526040902080546001600160a01b0319166001600160a01b0384169081179091558190613f3082611044565b613fa88383614404565b613fb560008484846142e6565b610ca75760405162461bcd60e51b8152600401610c58906153e2565b600160801b811015613fe857610ca783838361440e565b610ca7838383614560565b60006001600160a01b0385163b1561411d57506001835b6140148486614f74565b81101561411757604051630a85bd0160e11b81526001600160a01b0387169063150b7a029061404d9033908b9086908990600401615434565b6020604051808303816000875af1925050508015614088575060408051601f3d908101601f1916820190925261408591810190615344565b60015b6140e5573d8080156140b6576040519150601f19603f3d011682016040523d82523d6000602084013e6140bb565b606091505b5080516000036140dd5760405162461bcd60e51b8152600401610c5890615377565b805181602001fd5b82801561410257506001600160e01b03198116630a85bd0160e11b145b9250508061410f81614f2c565b91505061400a565b50614121565b5060015b95945050505050565b600881901c60008181526020849052604081205490919060ff808516919082181c801561416c5761415a81614738565b60ff168203600884901b179350614219565b600083116141d95760405162461bcd60e51b815260206004820152603460248201527f4269744d6170733a205468652073657420626974206265666f7265207468652060448201527334b73232bc103237b2b9b713ba1032bc34b9ba1760611b6064820152608401610c58565b5060001990910160008181526020869052604090205490919080156142145761420181614738565b60ff0360ff16600884901b179350614219565b61416c565b50505092915050565b6000807f7fffffffffffffffffffffffffffffff5d576e7357a4501ddfe92f46681b20a083111561425957506000905060036142dd565b6040805160008082526020820180845289905260ff881692820192909252606081018690526080810185905260019060a0016020604051602081039080840390855afa1580156142ad573d6000803e3d6000fd5b5050604051601f1901519150506001600160a01b0381166142d6576000600192509250506142dd565b9150600090505b94509492505050565b60006001600160a01b0384163b156143d457604051630a85bd0160e11b81526001600160a01b0385169063150b7a029061432a903390899088908890600401615434565b6020604051808303816000875af1925050508015614365575060408051601f3d908101601f1916820190925261436291810190615344565b60015b6143ba573d808015614393576040519150601f19603f3d011682016040523d82523d6000602084013e614398565b606091505b5080516000036140dd5760405162461bcd60e51b8152600401610c58906153e2565b6001600160e01b031916630a85bd0160e11b149050612dc2565b506001949350505050565b60006001600160e01b0319821663152a902d60e11b1480610bdc5750610bdc826147a2565b610bcd8282612c10565b826001600160a01b031661442182611ebe565b6001600160a01b0316146144475760405162461bcd60e51b8152600401610c5890615471565b6001600160a01b0382166144a95760405162461bcd60e51b8152602060048201526024808201527f4552433732313a207472616e7366657220746f20746865207a65726f206164646044820152637265737360e01b6064820152608401610c58565b826001600160a01b03166144bc82611ebe565b6001600160a01b0316146144e25760405162461bcd60e51b8152600401610c5890615471565b600081815260116020908152604080832080546001600160a01b03199081169091556001600160a01b0387811680865260108552838620805460001901905590871680865283862080546001019055868652600f90945282852080549092168417909155905184936000805160206154b783398151915291a4505050565b60008061456c83612fa3565b91509150846001600160a01b0316826001600160a01b0316146145e65760405162461bcd60e51b815260206004820152602c60248201527f4552433732315073693a207472616e73666572206f6620746f6b656e2074686160448201526b3a1034b9903737ba1037bbb760a11b6064820152608401610c58565b6001600160a01b03841661464c5760405162461bcd60e51b815260206004820152602760248201527f4552433732315073693a207472616e7366657220746f20746865207a65726f206044820152666164647265737360c81b6064820152608401610c58565b614657600084612679565b6000614664846001614f74565b600881901c600090815260056020526040902054909150600160ff1b60ff83161c16158015614694575060095481105b156146cb57600081815260086020526040902080546001600160a01b0319166001600160a01b0388161790556146cb600582613a16565b600084815260086020526040902080546001600160a01b0319166001600160a01b03871617905581841461470457614704600585613a16565b83856001600160a01b0316876001600160a01b03166000805160206154b783398151915260405160405180910390a4611497565b600060405180610120016040528061010081526020016154d7610100913960f87e818283848586878898a8b8c8d8e8f929395969799a9b9d9e9faaeb6bedeeff614781856147ad565b02901c8151811061479457614794614f00565b016020015160f81c92915050565b6000610bdc826147c5565b60008082116147bb57600080fd5b5060008190031690565b60006001600160e01b03198216635a05180f60e01b1480610bdc5750610bdc8260006001600160e01b03198216637965db0b60e01b1480610bdc57506301ffc9a760e01b6001600160e01b0319831614610bdc565b60006020828403121561482c57600080fd5b81356001600160401b0381111561484257600080fd5b8201606081850312156111ff57600080fd5b6001600160e01b031981168114610c6b57600080fd5b60006020828403121561487c57600080fd5b81356111ff81614854565b60005b838110156148a257818101518382015260200161488a565b50506000910152565b600081518084526148c3816020860160208601614887565b601f01601f19169290920160200192915050565b6020815260006111ff60208301846148ab565b6000602082840312156148fc57600080fd5b5035919050565b80356001600160a01b03811681146136f857600080fd5b6000806040838503121561492d57600080fd5b61493683614903565b946020939093013593505050565b60008083601f84011261495657600080fd5b5081356001600160401b0381111561496d57600080fd5b6020830191508360208260051b8501011115610d7557600080fd5b6000806020838503121561499b57600080fd5b82356001600160401b038111156149b157600080fd5b6149bd85828601614944565b90969095509350505050565b6000806000606084860312156149de57600080fd5b6149e784614903565b92506149f560208501614903565b9150604084013590509250925092565b60008060408385031215614a1857600080fd5b50508035926020909101359150565b60008060208385031215614a3a57600080fd5b82356001600160401b0380821115614a5157600080fd5b818501915085601f830112614a6557600080fd5b813581811115614a7457600080fd5b8660208260061b8501011115614a8957600080fd5b60209290920196919550909350505050565b60008060408385031215614aae57600080fd5b82359150614abe60208401614903565b90509250929050565b6020808252825182820181905260009190848201906040850190845b81811015614b085783516001600160a01b031683529284019291840191600101614ae3565b50909695505050505050565b600060208284031215614b2657600080fd5b6111ff82614903565b80356001600160601b03811681146136f857600080fd5b600080600060608486031215614b5b57600080fd5b83359250614b6b60208501614903565b9150614b7960408501614b2f565b90509250925092565b634e487b7160e01b600052604160045260246000fd5b60006001600160401b0380841115614bb257614bb2614b82565b604051601f8501601f19908116603f01168101908282118183101715614bda57614bda614b82565b81604052809350858152868686011115614bf357600080fd5b858560208301376000602087830101525050509392505050565b600060208284031215614c1f57600080fd5b81356001600160401b03811115614c3557600080fd5b8201601f81018413614c4657600080fd5b612dc284823560208401614b98565b600082601f830112614c6657600080fd5b6111ff83833560208501614b98565b60008060008060808587031215614c8b57600080fd5b614c9485614903565b9350602085013592506040850135915060608501356001600160401b03811115614cbd57600080fd5b614cc987828801614c55565b91505092959194509250565b60ff60f81b881681526000602060e081840152614cf560e084018a6148ab565b8381036040850152614d07818a6148ab565b606085018990526001600160a01b038816608086015260a0850187905284810360c0860152855180825283870192509083019060005b81811015614d5957835183529284019291840191600101614d3d565b50909c9b505050505050505050505050565b60008060408385031215614d7e57600080fd5b614d8783614903565b9150614abe60208401614b2f565b8015158114610c6b57600080fd5b60008060408385031215614db657600080fd5b614dbf83614903565b91506020830135614dcf81614d95565b809150509250929050565b60008060008060608587031215614df057600080fd5b84356001600160401b03811115614e0657600080fd5b614e1287828801614944565b9095509350614e25905060208601614903565b9150614e3360408601614b2f565b905092959194509250565b60008060008060808587031215614e5457600080fd5b614e5d85614903565b9350614e6b60208601614903565b92506040850135915060608501356001600160401b03811115614cbd57600080fd5b60008060408385031215614ea057600080fd5b614ea983614903565b9150614abe60208401614903565b6000808335601e19843603018112614ece57600080fd5b8301803591506001600160401b03821115614ee857600080fd5b6020019150600581901b3603821315610d7557600080fd5b634e487b7160e01b600052603260045260246000fd5b634e487b7160e01b600052601160045260246000fd5b600060018201614f3e57614f3e614f16565b5060010190565b602080825260159082015274125b9cdd59999a58da595b9d081a5b5e081cd95b9d605a1b604082015260600190565b80820180821115610bdc57610bdc614f16565b8082028115828204841417610bdc57610bdc614f16565b600082614fbb57634e487b7160e01b600052601260045260246000fd5b500490565b600181811c90821680614fd457607f821691505b602082108103614ff457634e487b7160e01b600052602260045260246000fd5b50919050565b601f821115610ca757600081815260208120601f850160051c810160208610156150215750805b601f850160051c820191505b818110156114975782815560010161502d565b81516001600160401b0381111561505957615059614b82565b61506d816150678454614fc0565b84614ffa565b602080601f8311600181146150a2576000841561508a5750858301515b600019600386901b1c1916600185901b178555611497565b600085815260208120601f198616915b828110156150d1578886015182559484019460019091019084016150b2565b50858210156150ef5787850151600019600388901b60f8161c191681555b5050505050600190811b01905550565b60006020828403121561511157600080fd5b81516111ff81614d95565b81810381811115610bdc57610bdc614f16565b60008235603e1983360301811261514557600080fd5b9190910192915050565b6020808252602d908201527f4552433732313a2063616c6c6572206973206e6f7420746f6b656e206f776e6560408201526c1c881bdc88185c1c1c9bdd9959609a1b606082015260800190565b60208082526034908201527f4552433732315073693a207472616e736665722063616c6c6572206973206e6f6040820152731d081bdddb995c881b9bdc88185c1c1c9bdd995960621b606082015260800190565b6000816151ff576151ff614f16565b506000190190565b6020808252602a908201527f455243323938313a20726f79616c7479206665652077696c6c206578636565646040820152692073616c65507269636560b01b606082015260800190565b80516020808301519190811015614ff45760001960209190910360031b1b16919050565b60008351615287818460208801614887565b83519083019061529b818360208801614887565b01949350505050565b7f416363657373436f6e74726f6c3a206163636f756e74200000000000000000008152600083516152dc816017850160208801614887565b7001034b99036b4b9b9b4b733903937b6329607d1b601791840191820152835161530d816028840160208801614887565b01602801949350505050565b828152604060208201526000612dc260408301846148ab565b60008251615145818460208701614887565b60006020828403121561535657600080fd5b81516111ff81614854565b634e487b7160e01b600052603160045260246000fd5b60208082526035908201527f4552433732315073693a207472616e7366657220746f206e6f6e20455243373260408201527418a932b1b2b4bb32b91034b6b83632b6b2b73a32b960591b606082015260800190565b634e487b7160e01b600052602160045260246000fd5b60208082526032908201527f4552433732313a207472616e7366657220746f206e6f6e20455243373231526560408201527131b2b4bb32b91034b6b83632b6b2b73a32b960711b606082015260800190565b6001600160a01b0385811682528416602082015260408101839052608060608201819052600090615467908301846148ab565b9695505050505050565b60208082526025908201527f4552433732313a207472616e736665722066726f6d20696e636f72726563742060408201526437bbb732b960d91b60608201526080019056feddf252ad1be2c89b69c2b068fc378daa952ba7f163c4a11628f55a4df523b3ef0001020903110a19042112290b311a3905412245134d2a550c5d32651b6d3a7506264262237d468514804e8d2b95569d0d495ea533a966b11c886eb93bc176c9071727374353637324837e9b47af86c7155181ad4fd18ed32c9096db57d59ee30e2e4a6a5f92a6be3498aae067ddb2eb1d5989b56fd7baf33ca0c2ee77e5caf7ff0810182028303840444c545c646c7425617c847f8c949c48a4a8b087b8c0c816365272829aaec650acd0d28fdad4e22d6991bd97dfdcea58b4d6f29fede4f6fe0f1f2f3f4b5b6b607b8b93a3a7b7bf357199c5abcfd9e168bcdee9b3f1ecf5fd1e3e5a7a8aa2b670c4ced8bbe8f0f4fc3d79a1c3cde7effb78cce6facbf9f8a164736f6c6343000813000a",
  "linkReferences": {},
  "deployedLinkReferences": {}
}