{
  "_format": "hh-sol-artifact-1",
  "contractName": "GameItems",
  "sourceName": "contracts/GameItems.sol",
  "abi": [
    {
      "inputs": [],
      "stateMutability": "nonpayable",
      "type": "constructor"
    },
    {
      "inputs": [],
      "name": "ERC721EnumerableForbiddenBatchMint",
      "type": "error"
    },
    {
      "inputs": [
        {
          "internalType": "address",
          "name": "sender",
          "type": "address"
        },
        {
          "internalType": "uint256",
          "name": "tokenId",
          "type": "uint256"
        },
        {
          "internalType": "address",
          "name": "owner",
          "type": "address"
        }
      ],
      "name": "ERC721IncorrectOwner",
      "type": "error"
    },
    {
      "inputs": [
        {
          "internalType": "address",
          "name": "operator",
          "type": "address"
        },
        {
          "internalType": "uint256",
          "name": "tokenId",
          "type": "uint256"
        }
      ],
      "name": "ERC721InsufficientApproval",
      "type": "error"
    },
    {
      "inputs": [
        {
          "internalType": "address",
          "name": "approver",
          "type": "address"
        }
      ],
      "name": "ERC721InvalidApprover",
      "type": "error"
    },
    {
      "inputs": [
        {
          "internalType": "address",
          "name": "operator",
          "type": "address"
        }
      ],
      "name": "ERC721InvalidOperator",
      "type": "error"
    },
    {
      "inputs": [
        {
          "internalType": "address",
          "name": "owner",
          "type": "address"
        }
      ],
      "name": "ERC721InvalidOwner",
      "type": "error"
    },
    {
      "inputs": [
        {
          "internalType": "address",
          "name": "receiver",
          "type": "address"
        }
      ],
      "name": "ERC721InvalidReceiver",
      "type": "error"
    },
    {
      "inputs": [
        {
          "internalType": "address",
          "name": "sender",
          "type": "address"
        }
      ],
      "name": "ERC721InvalidSender",
      "type": "error"
    },
    {
      "inputs": [
        {
          "internalType": "uint256",
          "name": "tokenId",
          "type": "uint256"
        }
      ],
      "name": "ERC721NonexistentToken",
      "type": "error"
    },
    {
      "inputs": [
        {
          "internalType": "address",
          "name": "owner",
          "type": "address"
        },
        {
          "internalType": "uint256",
          "name": "index",
          "type": "uint256"
        }
      ],
      "name": "ERC721OutOfBoundsIndex",
      "type": "error"
    },
    {
      "inputs": [],
      "name": "ReentrancyGuardReentrantCall",
      "type": "error"
    },
    {
      "anonymous": false,
      "inputs": [
        {
          "indexed": true,
          "internalType": "address",
          "name": "owner",
          "type": "address"
        },
        {
          "indexed": true,
          "internalType": "address",
          "name": "approved",
          "type": "address"
        },
        {
          "indexed": true,
          "internalType": "uint256",
          "name": "tokenId",
          "type": "uint256"
        }
      ],
      "name": "Approval",
      "type": "event"
    },
    {
      "anonymous": false,
      "inputs": [
        {
          "indexed": true,
          "internalType": "address",
          "name": "owner",
          "type": "address"
        },
        {
          "indexed": true,
          "internalType": "address",
          "name": "operator",
          "type": "address"
        },
        {
          "indexed": false,
          "internalType": "bool",
          "name": "approved",
          "type": "bool"
        }
      ],
      "name": "ApprovalForAll",
      "type": "event"
    },
    {
      "anonymous": false,
      "inputs": [
        {
          "indexed": false,
          "internalType": "uint256",
          "name": "_fromTokenId",
          "type": "uint256"
        },
        {
          "indexed": false,
          "internalType": "uint256",
          "name": "_toTokenId",
          "type": "uint256"
        }
      ],
      "name": "BatchMetadataUpdate",
      "type": "event"
    },
    {
      "anonymous": false,
      "inputs": [
        {
          "indexed": false,
          "internalType": "uint256",
          "name": "_tokenId",
          "type": "uint256"
        }
      ],
      "name": "MetadataUpdate",
      "type": "event"
    },
    {
      "anonymous": false,
      "inputs": [
        {
          "indexed": true,
          "internalType": "address",
          "name": "from",
          "type": "address"
        },
        {
          "indexed": true,
          "internalType": "address",
          "name": "to",
          "type": "address"
        },
        {
          "indexed": true,
          "internalType": "uint256",
          "name": "tokenId",
          "type": "uint256"
        }
      ],
      "name": "Transfer",
      "type": "event"
    },
    {
      "inputs": [
        {
          "internalType": "address",
          "name": "to",
          "type": "address"
        },
        {
          "internalType": "uint256",
          "name": "tokenId",
          "type": "uint256"
        }
      ],
      "name": "approve",
      "outputs": [],
      "stateMutability": "nonpayable",
      "type": "function"
    },
    {
      "inputs": [
        {
          "internalType": "address",
          "name": "owner",
          "type": "address"
        }
      ],
      "name": "balanceOf",
      "outputs": [
        {
          "internalType": "uint256",
          "name": "",
          "type": "uint256"
        }
      ],
      "stateMutability": "view",
      "type": "function"
    },
    {
      "inputs": [
        {
          "internalType": "string",
          "name": "_type",
          "type": "string"
        }
      ],
      "name": "buyItem",
      "outputs": [],
      "stateMutability": "payable",
      "type": "function"
    },
    {
      "inputs": [
        {
          "internalType": "uint256",
          "name": "tokenId",
          "type": "uint256"
        }
      ],
      "name": "getApproved",
      "outputs": [
        {
          "internalType": "address",
          "name": "",
          "type": "address"
        }
      ],
      "stateMutability": "view",
      "type": "function"
    },
    {
      "inputs": [
        {
          "internalType": "address",
          "name": "owner",
          "type": "address"
        },
        {
          "internalType": "address",
          "name": "operator",
          "type": "address"
        }
      ],
      "name": "isApprovedForAll",
      "outputs": [
        {
          "internalType": "bool",
          "name": "",
          "type": "bool"
        }
      ],
      "stateMutability": "view",
      "type": "function"
    },
    {
      "inputs": [],
      "name": "name",
      "outputs": [
        {
          "internalType": "string",
          "name": "",
          "type": "string"
        }
      ],
      "stateMutability": "view",
      "type": "function"
    },
    {
      "inputs": [],
      "name": "owner",
      "outputs": [
        {
          "internalType": "address payable",
          "name": "",
          "type": "address"
        }
      ],
      "stateMutability": "view",
      "type": "function"
    },
    {
      "inputs": [
        {
          "internalType": "uint256",
          "name": "tokenId",
          "type": "uint256"
        }
      ],
      "name": "ownerOf",
      "outputs": [
        {
          "internalType": "address",
          "name": "",
          "type": "address"
        }
      ],
      "stateMutability": "view",
      "type": "function"
    },
    {
      "inputs": [
        {
          "internalType": "address",
          "name": "from",
          "type": "address"
        },
        {
          "internalType": "address",
          "name": "to",
          "type": "address"
        },
        {
          "internalType": "uint256",
          "name": "tokenId",
          "type": "uint256"
        }
      ],
      "name": "safeTransferFrom",
      "outputs": [],
      "stateMutability": "nonpayable",
      "type": "function"
    },
    {
      "inputs": [
        {
          "internalType": "address",
          "name": "from",
          "type": "address"
        },
        {
          "internalType": "address",
          "name": "to",
          "type": "address"
        },
        {
          "internalType": "uint256",
          "name": "tokenId",
          "type": "uint256"
        },
        {
          "internalType": "bytes",
          "name": "data",
          "type": "bytes"
        }
      ],
      "name": "safeTransferFrom",
      "outputs": [],
      "stateMutability": "nonpayable",
      "type": "function"
    },
    {
      "inputs": [
        {
          "internalType": "address",
          "name": "operator",
          "type": "address"
        },
        {
          "internalType": "bool",
          "name": "approved",
          "type": "bool"
        }
      ],
      "name": "setApprovalForAll",
      "outputs": [],
      "stateMutability": "nonpayable",
      "type": "function"
    },
    {
      "inputs": [
        {
          "internalType": "bytes4",
          "name": "interfaceId",
          "type": "bytes4"
        }
      ],
      "name": "supportsInterface",
      "outputs": [
        {
          "internalType": "bool",
          "name": "",
          "type": "bool"
        }
      ],
      "stateMutability": "view",
      "type": "function"
    },
    {
      "inputs": [],
      "name": "symbol",
      "outputs": [
        {
          "internalType": "string",
          "name": "",
          "type": "string"
        }
      ],
      "stateMutability": "view",
      "type": "function"
    },
    {
      "inputs": [
        {
          "internalType": "uint256",
          "name": "index",
          "type": "uint256"
        }
      ],
      "name": "tokenByIndex",
      "outputs": [
        {
          "internalType": "uint256",
          "name": "",
          "type": "uint256"
        }
      ],
      "stateMutability": "view",
      "type": "function"
    },
    {
      "inputs": [
        {
          "internalType": "address",
          "name": "owner",
          "type": "address"
        },
        {
          "internalType": "uint256",
          "name": "index",
          "type": "uint256"
        }
      ],
      "name": "tokenOfOwnerByIndex",
      "outputs": [
        {
          "internalType": "uint256",
          "name": "",
          "type": "uint256"
        }
      ],
      "stateMutability": "view",
      "type": "function"
    },
    {
      "inputs": [
        {
          "internalType": "uint256",
          "name": "tokenId",
          "type": "uint256"
        }
      ],
      "name": "tokenURI",
      "outputs": [
        {
          "internalType": "string",
          "name": "",
          "type": "string"
        }
      ],
      "stateMutability": "view",
      "type": "function"
    },
    {
      "inputs": [],
      "name": "totalSupply",
      "outputs": [
        {
          "internalType": "uint256",
          "name": "",
          "type": "uint256"
        }
      ],
      "stateMutability": "view",
      "type": "function"
    },
    {
      "inputs": [
        {
          "internalType": "address",
          "name": "from",
          "type": "address"
        },
        {
          "internalType": "address",
          "name": "to",
          "type": "address"
        },
        {
          "internalType": "uint256",
          "name": "tokenId",
          "type": "uint256"
        }
      ],
      "name": "transferFrom",
      "outputs": [],
      "stateMutability": "nonpayable",
      "type": "function"
    },
    {
      "inputs": [],
      "name": "withdraw",
      "outputs": [],
      "stateMutability": "nonpayable",
      "type": "function"
    }
  ],
  "bytecode": "0x60806040523480156200001157600080fd5b506040518060400160405280600981526020017f47616d654974656d7300000000000000000000000000000000000000000000008152506040518060400160405280600581526020017f4749544d5300000000000000000000000000000000000000000000000000000081525081600090816200008f91906200063a565b508060019081620000a191906200063a565b5050506001600b8190555033600d60006101000a81548173ffffffffffffffffffffffffffffffffffffffff021916908373ffffffffffffffffffffffffffffffffffffffff16021790555060405180604001604052806040518060600160405280603c815260200162003a80603c91398152602001655af3107a4000815250600e60405162000131906200077c565b908152602001604051809103902060008201518160000190816200015691906200063a565b506020820151816001015590505060405180604001604052806040518060600160405280603a815260200162003af9603a9139815260200165886c98b76000815250600e604051620001a890620007e3565b90815260200160405180910390206000820151816000019081620001cd91906200063a565b5060208201518160010155905050604051806040016040528060405180606001604052806039815260200162003a4760399139815260200165b5e620f48000815250600e6040516200021f906200084a565b908152602001604051809103902060008201518160000190816200024491906200063a565b506020820151816001015590505060405180604001604052806040518060600160405280603d815260200162003abc603d91398152602001660110d9316ec000815250600e6040516200029790620008b1565b90815260200160405180910390206000820151816000019081620002bc91906200063a565b5060208201518160010155905050604051806040016040528060405180606001604052806039815260200162003b3360399139815260200166016bcc41e90000815250600e6040516200030f9062000918565b908152602001604051809103902060008201518160000190816200033491906200063a565b506020820151816001015590505060405180604001604052806040518060600160405280603b815260200162003b6c603b913981526020016601c6bf52634000815250600e60405162000387906200097f565b90815260200160405180910390206000820151816000019081620003ac91906200063a565b506020820151816001015590505062000996565b600081519050919050565b7f4e487b7100000000000000000000000000000000000000000000000000000000600052604160045260246000fd5b7f4e487b7100000000000000000000000000000000000000000000000000000000600052602260045260246000fd5b600060028204905060018216806200044257607f821691505b602082108103620004585762000457620003fa565b5b50919050565b60008190508160005260206000209050919050565b60006020601f8301049050919050565b600082821b905092915050565b600060088302620004c27fffffffffffffffffffffffffffffffffffffffffffffffffffffffffffffffff8262000483565b620004ce868362000483565b95508019841693508086168417925050509392505050565b6000819050919050565b6000819050919050565b60006200051b620005156200050f84620004e6565b620004f0565b620004e6565b9050919050565b6000819050919050565b6200053783620004fa565b6200054f620005468262000522565b84845462000490565b825550505050565b600090565b6200056662000557565b620005738184846200052c565b505050565b5b818110156200059b576200058f6000826200055c565b60018101905062000579565b5050565b601f821115620005ea57620005b4816200045e565b620005bf8462000473565b81016020851015620005cf578190505b620005e7620005de8562000473565b83018262000578565b50505b505050565b600082821c905092915050565b60006200060f60001984600802620005ef565b1980831691505092915050565b60006200062a8383620005fc565b9150826002028217905092915050565b6200064582620003c0565b67ffffffffffffffff811115620006615762000660620003cb565b5b6200066d825462000429565b6200067a8282856200059f565b600060209050601f831160018114620006b257600084156200069d578287015190505b620006a985826200061c565b86555062000719565b601f198416620006c2866200045e565b60005b82811015620006ec57848901518255600182019150602085019450602081019050620006c5565b868310156200070c578489015162000708601f891682620005fc565b8355505b6001600288020188555050505b505050505050565b600081905092915050565b7f7370656564790000000000000000000000000000000000000000000000000000600082015250565b60006200076460068362000721565b915062000771826200072c565b600682019050919050565b6000620007898262000755565b9150819050919050565b7f74616e6b00000000000000000000000000000000000000000000000000000000600082015250565b6000620007cb60048362000721565b9150620007d88262000793565b600482019050919050565b6000620007f082620007bc565b9150819050919050565b7f676d650000000000000000000000000000000000000000000000000000000000600082015250565b60006200083260038362000721565b91506200083f82620007fa565b600382019050919050565b6000620008578262000823565b9150819050919050565b7f6c61736572783300000000000000000000000000000000000000000000000000600082015250565b60006200089960078362000721565b9150620008a68262000861565b600782019050919050565b6000620008be826200088a565b9150819050919050565b7f6472730000000000000000000000000000000000000000000000000000000000600082015250565b60006200090060038362000721565b91506200090d82620008c8565b600382019050919050565b60006200092582620008f1565b9150819050919050565b7f6472737835000000000000000000000000000000000000000000000000000000600082015250565b60006200096760058362000721565b915062000974826200092f565b600582019050919050565b60006200098c8262000958565b9150819050919050565b6130a180620009a66000396000f3fe6080604052600436106101145760003560e01c806342842e0e116100a057806395d89b411161006457806395d89b41146103b6578063a22cb465146103e1578063b88d4fde1461040a578063c87b56dd14610433578063e985e9c51461047057610114565b806342842e0e146102ab5780634f6ccce7146102d45780636352211e1461031157806370a082311461034e5780638da5cb5b1461038b57610114565b806313f19926116100e757806313f19926146101e757806318160ddd1461020357806323b872dd1461022e5780632f745c59146102575780633ccfd60b1461029457610114565b806301ffc9a71461011957806306fdde0314610156578063081812fc14610181578063095ea7b3146101be575b600080fd5b34801561012557600080fd5b50610140600480360381019061013b91906122bd565b6104ad565b60405161014d9190612305565b60405180910390f35b34801561016257600080fd5b5061016b6104bf565b60405161017891906123b0565b60405180910390f35b34801561018d57600080fd5b506101a860048036038101906101a39190612408565b610551565b6040516101b59190612476565b60405180910390f35b3480156101ca57600080fd5b506101e560048036038101906101e091906124bd565b61056d565b005b61020160048036038101906101fc9190612632565b610583565b005b34801561020f57600080fd5b5061021861074c565b604051610225919061268a565b60405180910390f35b34801561023a57600080fd5b50610255600480360381019061025091906126a5565b610759565b005b34801561026357600080fd5b5061027e600480360381019061027991906124bd565b61085b565b60405161028b919061268a565b60405180910390f35b3480156102a057600080fd5b506102a9610904565b005b3480156102b757600080fd5b506102d260048036038101906102cd91906126a5565b6109ff565b005b3480156102e057600080fd5b506102fb60048036038101906102f69190612408565b610a1f565b604051610308919061268a565b60405180910390f35b34801561031d57600080fd5b5061033860048036038101906103339190612408565b610a95565b6040516103459190612476565b60405180910390f35b34801561035a57600080fd5b50610375600480360381019061037091906126f8565b610aa7565b604051610382919061268a565b60405180910390f35b34801561039757600080fd5b506103a0610b61565b6040516103ad9190612746565b60405180910390f35b3480156103c257600080fd5b506103cb610b87565b6040516103d891906123b0565b60405180910390f35b3480156103ed57600080fd5b506104086004803603810190610403919061278d565b610c19565b005b34801561041657600080fd5b50610431600480360381019061042c919061286e565b610c2f565b005b34801561043f57600080fd5b5061045a60048036038101906104559190612408565b610c4c565b60405161046791906123b0565b60405180910390f35b34801561047c57600080fd5b50610497600480360381019061049291906128f1565b610c5e565b6040516104a49190612305565b60405180910390f35b60006104b882610cf2565b9050919050565b6060600080546104ce90612960565b80601f01602080910402602001604051908101604052809291908181526020018280546104fa90612960565b80156105475780601f1061051c57610100808354040283529160200191610547565b820191906000526020600020905b81548152906001019060200180831161052a57829003601f168201915b5050505050905090565b600061055c82610d53565b5061056682610ddb565b9050919050565b61057f828261057a610e18565b610e20565b5050565b61058b610e32565b6000600e8260405161059d91906129cd565b908152602001604051809103902060000180546105b990612960565b9050116105fb576040517f08c379a00000000000000000000000000000000000000000000000000000000081526004016105f290612a30565b60405180910390fd5b6000600e8260405161060d91906129cd565b9081526020016040518091039020600101549050803414610663576040517f08c379a000000000000000000000000000000000000000000000000000000000815260040161065a90612a9c565b60405180910390fd5b600c600081548092919061067690612aeb565b91905055506000600c54905061068c3382610e78565b61073f81600e856040516106a091906129cd565b908152602001604051809103902060000180546106bc90612960565b80601f01602080910402602001604051908101604052809291908181526020018280546106e890612960565b80156107355780601f1061070a57610100808354040283529160200191610735565b820191906000526020600020905b81548152906001019060200180831161071857829003601f168201915b5050505050610f71565b5050610749610fcd565b50565b6000600880549050905090565b600073ffffffffffffffffffffffffffffffffffffffff168273ffffffffffffffffffffffffffffffffffffffff16036107cb5760006040517f64a0ae920000000000000000000000000000000000000000000000000000000081526004016107c29190612476565b60405180910390fd5b60006107df83836107da610e18565b610fd7565b90508373ffffffffffffffffffffffffffffffffffffffff168173ffffffffffffffffffffffffffffffffffffffff1614610855578382826040517f64283d7b00000000000000000000000000000000000000000000000000000000815260040161084c93929190612b33565b60405180910390fd5b50505050565b600061086683610aa7565b82106108ab5782826040517fa57d13dc0000000000000000000000000000000000000000000000000000000081526004016108a2929190612b6a565b60405180910390fd5b600660008473ffffffffffffffffffffffffffffffffffffffff1673ffffffffffffffffffffffffffffffffffffffff168152602001908152602001600020600083815260200190815260200160002054905092915050565b600d60009054906101000a900473ffffffffffffffffffffffffffffffffffffffff1673ffffffffffffffffffffffffffffffffffffffff163373ffffffffffffffffffffffffffffffffffffffff1614610994576040517f08c379a000000000000000000000000000000000000000000000000000000000815260040161098b90612c05565b60405180910390fd5b600d60009054906101000a900473ffffffffffffffffffffffffffffffffffffffff1673ffffffffffffffffffffffffffffffffffffffff166108fc479081150290604051600060405180830381858888f193505050501580156109fc573d6000803e3d6000fd5b50565b610a1a83838360405180602001604052806000815250610c2f565b505050565b6000610a2961074c565b8210610a6f576000826040517fa57d13dc000000000000000000000000000000000000000000000000000000008152600401610a66929190612b6a565b60405180910390fd5b60088281548110610a8357610a82612c25565b5b90600052602060002001549050919050565b6000610aa082610d53565b9050919050565b60008073ffffffffffffffffffffffffffffffffffffffff168273ffffffffffffffffffffffffffffffffffffffff1603610b1a5760006040517f89c62b64000000000000000000000000000000000000000000000000000000008152600401610b119190612476565b60405180910390fd5b600360008373ffffffffffffffffffffffffffffffffffffffff1673ffffffffffffffffffffffffffffffffffffffff168152602001908152602001600020549050919050565b600d60009054906101000a900473ffffffffffffffffffffffffffffffffffffffff1681565b606060018054610b9690612960565b80601f0160208091040260200160405190810160405280929190818152602001828054610bc290612960565b8015610c0f5780601f10610be457610100808354040283529160200191610c0f565b820191906000526020600020905b815481529060010190602001808311610bf257829003601f168201915b5050505050905090565b610c2b610c24610e18565b8383610fed565b5050565b610c3a848484610759565b610c468484848461115c565b50505050565b6060610c5782611313565b9050919050565b6000600560008473ffffffffffffffffffffffffffffffffffffffff1673ffffffffffffffffffffffffffffffffffffffff16815260200190815260200160002060008373ffffffffffffffffffffffffffffffffffffffff1673ffffffffffffffffffffffffffffffffffffffff16815260200190815260200160002060009054906101000a900460ff16905092915050565b6000634906490660e01b7bffffffffffffffffffffffffffffffffffffffffffffffffffffffff1916827bffffffffffffffffffffffffffffffffffffffffffffffffffffffff19161480610d4c5750610d4b82611426565b5b9050919050565b600080610d5f836114a0565b9050600073ffffffffffffffffffffffffffffffffffffffff168173ffffffffffffffffffffffffffffffffffffffff1603610dd257826040517f7e273289000000000000000000000000000000000000000000000000000000008152600401610dc9919061268a565b60405180910390fd5b80915050919050565b60006004600083815260200190815260200160002060009054906101000a900473ffffffffffffffffffffffffffffffffffffffff169050919050565b600033905090565b610e2d83838360016114dd565b505050565b6002600b5403610e6e576040517f3ee5aeb500000000000000000000000000000000000000000000000000000000815260040160405180910390fd5b6002600b81905550565b600073ffffffffffffffffffffffffffffffffffffffff168273ffffffffffffffffffffffffffffffffffffffff1603610eea5760006040517f64a0ae92000000000000000000000000000000000000000000000000000000008152600401610ee19190612476565b60405180910390fd5b6000610ef883836000610fd7565b9050600073ffffffffffffffffffffffffffffffffffffffff168173ffffffffffffffffffffffffffffffffffffffff1614610f6c5760006040517f73c6ac6e000000000000000000000000000000000000000000000000000000008152600401610f639190612476565b60405180910390fd5b505050565b80600a60008481526020019081526020016000209081610f919190612e00565b507ff8e1a15aba9398e019f0b49df1a4fde98ee17ae345cb5f6b5e2c27f5033e8ce782604051610fc1919061268a565b60405180910390a15050565b6001600b81905550565b6000610fe48484846116a2565b90509392505050565b600073ffffffffffffffffffffffffffffffffffffffff168273ffffffffffffffffffffffffffffffffffffffff160361105e57816040517f5b08ba180000000000000000000000000000000000000000000000000000000081526004016110559190612476565b60405180910390fd5b80600560008573ffffffffffffffffffffffffffffffffffffffff1673ffffffffffffffffffffffffffffffffffffffff16815260200190815260200160002060008473ffffffffffffffffffffffffffffffffffffffff1673ffffffffffffffffffffffffffffffffffffffff16815260200190815260200160002060006101000a81548160ff0219169083151502179055508173ffffffffffffffffffffffffffffffffffffffff168373ffffffffffffffffffffffffffffffffffffffff167f17307eab39ab6107e8899845ad3d59bd9653f200f220920489ca2b5937696c318360405161114f9190612305565b60405180910390a3505050565b60008373ffffffffffffffffffffffffffffffffffffffff163b111561130d578273ffffffffffffffffffffffffffffffffffffffff1663150b7a026111a0610e18565b8685856040518563ffffffff1660e01b81526004016111c29493929190612f27565b6020604051808303816000875af19250505080156111fe57506040513d601f19601f820116820180604052508101906111fb9190612f88565b60015b611282573d806000811461122e576040519150601f19603f3d011682016040523d82523d6000602084013e611233565b606091505b50600081510361127a57836040517f64a0ae920000000000000000000000000000000000000000000000000000000081526004016112719190612476565b60405180910390fd5b805181602001fd5b63150b7a0260e01b7bffffffffffffffffffffffffffffffffffffffffffffffffffffffff1916817bffffffffffffffffffffffffffffffffffffffffffffffffffffffff19161461130b57836040517f64a0ae920000000000000000000000000000000000000000000000000000000081526004016113029190612476565b60405180910390fd5b505b50505050565b606061131e82610d53565b506000600a6000848152602001908152602001600020805461133f90612960565b80601f016020809104026020016040519081016040528092919081815260200182805461136b90612960565b80156113b85780601f1061138d576101008083540402835291602001916113b8565b820191906000526020600020905b81548152906001019060200180831161139b57829003601f168201915b5050505050905060006113c96117bf565b905060008151036113de578192505050611421565b6000825111156114135780826040516020016113fb929190612fb5565b60405160208183030381529060405292505050611421565b61141c846117d6565b925050505b919050565b60007f780e9d63000000000000000000000000000000000000000000000000000000007bffffffffffffffffffffffffffffffffffffffffffffffffffffffff1916827bffffffffffffffffffffffffffffffffffffffffffffffffffffffff1916148061149957506114988261183f565b5b9050919050565b60006002600083815260200190815260200160002060009054906101000a900473ffffffffffffffffffffffffffffffffffffffff169050919050565b80806115165750600073ffffffffffffffffffffffffffffffffffffffff168273ffffffffffffffffffffffffffffffffffffffff1614155b1561164a57600061152684610d53565b9050600073ffffffffffffffffffffffffffffffffffffffff168373ffffffffffffffffffffffffffffffffffffffff161415801561159157508273ffffffffffffffffffffffffffffffffffffffff168173ffffffffffffffffffffffffffffffffffffffff1614155b80156115a457506115a28184610c5e565b155b156115e657826040517fa9fbf51f0000000000000000000000000000000000000000000000000000000081526004016115dd9190612476565b60405180910390fd5b811561164857838573ffffffffffffffffffffffffffffffffffffffff168273ffffffffffffffffffffffffffffffffffffffff167f8c5be1e5ebec7d5bd14f71427d1e84f3dd0314c0f7b2291e5b200ac8c7c3b92560405160405180910390a45b505b836004600085815260200190815260200160002060006101000a81548173ffffffffffffffffffffffffffffffffffffffff021916908373ffffffffffffffffffffffffffffffffffffffff16021790555050505050565b6000806116b0858585611921565b9050600073ffffffffffffffffffffffffffffffffffffffff168173ffffffffffffffffffffffffffffffffffffffff16036116f4576116ef84611b3b565b611733565b8473ffffffffffffffffffffffffffffffffffffffff168173ffffffffffffffffffffffffffffffffffffffff1614611732576117318185611b84565b5b5b600073ffffffffffffffffffffffffffffffffffffffff168573ffffffffffffffffffffffffffffffffffffffff16036117755761177084611ce5565b6117b4565b8473ffffffffffffffffffffffffffffffffffffffff168173ffffffffffffffffffffffffffffffffffffffff16146117b3576117b28585611db6565b5b5b809150509392505050565b606060405180602001604052806000815250905090565b60606117e182610d53565b5060006117ec6117bf565b9050600081511161180c5760405180602001604052806000815250611837565b8061181684611e41565b604051602001611827929190612fb5565b6040516020818303038152906040525b915050919050565b60007f80ac58cd000000000000000000000000000000000000000000000000000000007bffffffffffffffffffffffffffffffffffffffffffffffffffffffff1916827bffffffffffffffffffffffffffffffffffffffffffffffffffffffff1916148061190a57507f5b5e139f000000000000000000000000000000000000000000000000000000007bffffffffffffffffffffffffffffffffffffffffffffffffffffffff1916827bffffffffffffffffffffffffffffffffffffffffffffffffffffffff1916145b8061191a575061191982611f0f565b5b9050919050565b60008061192d846114a0565b9050600073ffffffffffffffffffffffffffffffffffffffff168373ffffffffffffffffffffffffffffffffffffffff161461196f5761196e818486611f79565b5b600073ffffffffffffffffffffffffffffffffffffffff168173ffffffffffffffffffffffffffffffffffffffff1614611a00576119b16000856000806114dd565b6001600360008373ffffffffffffffffffffffffffffffffffffffff1673ffffffffffffffffffffffffffffffffffffffff168152602001908152602001600020600082825403925050819055505b600073ffffffffffffffffffffffffffffffffffffffff168573ffffffffffffffffffffffffffffffffffffffff1614611a83576001600360008773ffffffffffffffffffffffffffffffffffffffff1673ffffffffffffffffffffffffffffffffffffffff168152602001908152602001600020600082825401925050819055505b846002600086815260200190815260200160002060006101000a81548173ffffffffffffffffffffffffffffffffffffffff021916908373ffffffffffffffffffffffffffffffffffffffff160217905550838573ffffffffffffffffffffffffffffffffffffffff168273ffffffffffffffffffffffffffffffffffffffff167fddf252ad1be2c89b69c2b068fc378daa952ba7f163c4a11628f55a4df523b3ef60405160405180910390a4809150509392505050565b6008805490506009600083815260200190815260200160002081905550600881908060018154018082558091505060019003906000526020600020016000909190919091505550565b6000611b8f83610aa7565b9050600060076000848152602001908152602001600020549050818114611c74576000600660008673ffffffffffffffffffffffffffffffffffffffff1673ffffffffffffffffffffffffffffffffffffffff168152602001908152602001600020600084815260200190815260200160002054905080600660008773ffffffffffffffffffffffffffffffffffffffff1673ffffffffffffffffffffffffffffffffffffffff168152602001908152602001600020600084815260200190815260200160002081905550816007600083815260200190815260200160002081905550505b6007600084815260200190815260200160002060009055600660008573ffffffffffffffffffffffffffffffffffffffff1673ffffffffffffffffffffffffffffffffffffffff16815260200190815260200160002060008381526020019081526020016000206000905550505050565b60006001600880549050611cf99190612fd9565b9050600060096000848152602001908152602001600020549050600060088381548110611d2957611d28612c25565b5b906000526020600020015490508060088381548110611d4b57611d4a612c25565b5b906000526020600020018190555081600960008381526020019081526020016000208190555060096000858152602001908152602001600020600090556008805480611d9a57611d9961300d565b5b6001900381819060005260206000200160009055905550505050565b60006001611dc384610aa7565b611dcd9190612fd9565b905081600660008573ffffffffffffffffffffffffffffffffffffffff1673ffffffffffffffffffffffffffffffffffffffff168152602001908152602001600020600083815260200190815260200160002081905550806007600084815260200190815260200160002081905550505050565b606060006001611e508461203d565b01905060008167ffffffffffffffff811115611e6f57611e6e612507565b5b6040519080825280601f01601f191660200182016040528015611ea15781602001600182028036833780820191505090505b509050600082602001820190505b600115611f04578080600190039150507f3031323334353637383961626364656600000000000000000000000000000000600a86061a8153600a8581611ef857611ef761303c565b5b04945060008503611eaf575b819350505050919050565b60007f01ffc9a7000000000000000000000000000000000000000000000000000000007bffffffffffffffffffffffffffffffffffffffffffffffffffffffff1916827bffffffffffffffffffffffffffffffffffffffffffffffffffffffff1916149050919050565b611f84838383612190565b61203857600073ffffffffffffffffffffffffffffffffffffffff168373ffffffffffffffffffffffffffffffffffffffff1603611ff957806040517f7e273289000000000000000000000000000000000000000000000000000000008152600401611ff0919061268a565b60405180910390fd5b81816040517f177e802f00000000000000000000000000000000000000000000000000000000815260040161202f929190612b6a565b60405180910390fd5b505050565b600080600090507a184f03e93ff9f4daa797ed6e38ed64bf6a1f010000000000000000831061209b577a184f03e93ff9f4daa797ed6e38ed64bf6a1f01000000000000000083816120915761209061303c565b5b0492506040810190505b6d04ee2d6d415b85acef810000000083106120d8576d04ee2d6d415b85acef810000000083816120ce576120cd61303c565b5b0492506020810190505b662386f26fc10000831061210757662386f26fc1000083816120fd576120fc61303c565b5b0492506010810190505b6305f5e1008310612130576305f5e10083816121265761212561303c565b5b0492506008810190505b612710831061215557612710838161214b5761214a61303c565b5b0492506004810190505b60648310612178576064838161216e5761216d61303c565b5b0492506002810190505b600a8310612187576001810190505b80915050919050565b60008073ffffffffffffffffffffffffffffffffffffffff168373ffffffffffffffffffffffffffffffffffffffff161415801561224857508273ffffffffffffffffffffffffffffffffffffffff168473ffffffffffffffffffffffffffffffffffffffff16148061220957506122088484610c5e565b5b8061224757508273ffffffffffffffffffffffffffffffffffffffff1661222f83610ddb565b73ffffffffffffffffffffffffffffffffffffffff16145b5b90509392505050565b6000604051905090565b600080fd5b600080fd5b60007fffffffff0000000000000000000000000000000000000000000000000000000082169050919050565b61229a81612265565b81146122a557600080fd5b50565b6000813590506122b781612291565b92915050565b6000602082840312156122d3576122d261225b565b5b60006122e1848285016122a8565b91505092915050565b60008115159050919050565b6122ff816122ea565b82525050565b600060208201905061231a60008301846122f6565b92915050565b600081519050919050565b600082825260208201905092915050565b60005b8381101561235a57808201518184015260208101905061233f565b60008484015250505050565b6000601f19601f8301169050919050565b600061238282612320565b61238c818561232b565b935061239c81856020860161233c565b6123a581612366565b840191505092915050565b600060208201905081810360008301526123ca8184612377565b905092915050565b6000819050919050565b6123e5816123d2565b81146123f057600080fd5b50565b600081359050612402816123dc565b92915050565b60006020828403121561241e5761241d61225b565b5b600061242c848285016123f3565b91505092915050565b600073ffffffffffffffffffffffffffffffffffffffff82169050919050565b600061246082612435565b9050919050565b61247081612455565b82525050565b600060208201905061248b6000830184612467565b92915050565b61249a81612455565b81146124a557600080fd5b50565b6000813590506124b781612491565b92915050565b600080604083850312156124d4576124d361225b565b5b60006124e2858286016124a8565b92505060206124f3858286016123f3565b9150509250929050565b600080fd5b600080fd5b7f4e487b7100000000000000000000000000000000000000000000000000000000600052604160045260246000fd5b61253f82612366565b810181811067ffffffffffffffff8211171561255e5761255d612507565b5b80604052505050565b6000612571612251565b905061257d8282612536565b919050565b600067ffffffffffffffff82111561259d5761259c612507565b5b6125a682612366565b9050602081019050919050565b82818337600083830152505050565b60006125d56125d084612582565b612567565b9050828152602081018484840111156125f1576125f0612502565b5b6125fc8482856125b3565b509392505050565b600082601f830112612619576126186124fd565b5b81356126298482602086016125c2565b91505092915050565b6000602082840312156126485761264761225b565b5b600082013567ffffffffffffffff81111561266657612665612260565b5b61267284828501612604565b91505092915050565b612684816123d2565b82525050565b600060208201905061269f600083018461267b565b92915050565b6000806000606084860312156126be576126bd61225b565b5b60006126cc868287016124a8565b93505060206126dd868287016124a8565b92505060406126ee868287016123f3565b9150509250925092565b60006020828403121561270e5761270d61225b565b5b600061271c848285016124a8565b91505092915050565b600061273082612435565b9050919050565b61274081612725565b82525050565b600060208201905061275b6000830184612737565b92915050565b61276a816122ea565b811461277557600080fd5b50565b60008135905061278781612761565b92915050565b600080604083850312156127a4576127a361225b565b5b60006127b2858286016124a8565b92505060206127c385828601612778565b9150509250929050565b600067ffffffffffffffff8211156127e8576127e7612507565b5b6127f182612366565b9050602081019050919050565b600061281161280c846127cd565b612567565b90508281526020810184848401111561282d5761282c612502565b5b6128388482856125b3565b509392505050565b600082601f830112612855576128546124fd565b5b81356128658482602086016127fe565b91505092915050565b600080600080608085870312156128885761288761225b565b5b6000612896878288016124a8565b94505060206128a7878288016124a8565b93505060406128b8878288016123f3565b925050606085013567ffffffffffffffff8111156128d9576128d8612260565b5b6128e587828801612840565b91505092959194509250565b600080604083850312156129085761290761225b565b5b6000612916858286016124a8565b9250506020612927858286016124a8565b9150509250929050565b7f4e487b7100000000000000000000000000000000000000000000000000000000600052602260045260246000fd5b6000600282049050600182168061297857607f821691505b60208210810361298b5761298a612931565b5b50919050565b600081905092915050565b60006129a782612320565b6129b18185612991565b93506129c181856020860161233c565b80840191505092915050565b60006129d9828461299c565b915081905092915050565b7f4e6f6e2d6578697374656e7420746f6b656e2074797065000000000000000000600082015250565b6000612a1a60178361232b565b9150612a25826129e4565b602082019050919050565b60006020820190508181036000830152612a4981612a0d565b9050919050565b7f496e636f72726563742076616c75652073656e74000000000000000000000000600082015250565b6000612a8660148361232b565b9150612a9182612a50565b602082019050919050565b60006020820190508181036000830152612ab581612a79565b9050919050565b7f4e487b7100000000000000000000000000000000000000000000000000000000600052601160045260246000fd5b6000612af6826123d2565b91507fffffffffffffffffffffffffffffffffffffffffffffffffffffffffffffffff8203612b2857612b27612abc565b5b600182019050919050565b6000606082019050612b486000830186612467565b612b55602083018561267b565b612b626040830184612467565b949350505050565b6000604082019050612b7f6000830185612467565b612b8c602083018461267b565b9392505050565b7f4f6e6c7920746865206f776e65722063616e20706572666f726d20746869732060008201527f616374696f6e0000000000000000000000000000000000000000000000000000602082015250565b6000612bef60268361232b565b9150612bfa82612b93565b604082019050919050565b60006020820190508181036000830152612c1e81612be2565b9050919050565b7f4e487b7100000000000000000000000000000000000000000000000000000000600052603260045260246000fd5b60008190508160005260206000209050919050565b60006020601f8301049050919050565b600082821b905092915050565b600060088302612cb67fffffffffffffffffffffffffffffffffffffffffffffffffffffffffffffffff82612c79565b612cc08683612c79565b95508019841693508086168417925050509392505050565b6000819050919050565b6000612cfd612cf8612cf3846123d2565b612cd8565b6123d2565b9050919050565b6000819050919050565b612d1783612ce2565b612d2b612d2382612d04565b848454612c86565b825550505050565b600090565b612d40612d33565b612d4b818484612d0e565b505050565b5b81811015612d6f57612d64600082612d38565b600181019050612d51565b5050565b601f821115612db457612d8581612c54565b612d8e84612c69565b81016020851015612d9d578190505b612db1612da985612c69565b830182612d50565b50505b505050565b600082821c905092915050565b6000612dd760001984600802612db9565b1980831691505092915050565b6000612df08383612dc6565b9150826002028217905092915050565b612e0982612320565b67ffffffffffffffff811115612e2257612e21612507565b5b612e2c8254612960565b612e37828285612d73565b600060209050601f831160018114612e6a5760008415612e58578287015190505b612e628582612de4565b865550612eca565b601f198416612e7886612c54565b60005b82811015612ea057848901518255600182019150602085019450602081019050612e7b565b86831015612ebd5784890151612eb9601f891682612dc6565b8355505b6001600288020188555050505b505050505050565b600081519050919050565b600082825260208201905092915050565b6000612ef982612ed2565b612f038185612edd565b9350612f1381856020860161233c565b612f1c81612366565b840191505092915050565b6000608082019050612f3c6000830187612467565b612f496020830186612467565b612f56604083018561267b565b8181036060830152612f688184612eee565b905095945050505050565b600081519050612f8281612291565b92915050565b600060208284031215612f9e57612f9d61225b565b5b6000612fac84828501612f73565b91505092915050565b6000612fc1828561299c565b9150612fcd828461299c565b91508190509392505050565b6000612fe4826123d2565b9150612fef836123d2565b925082820390508181111561300757613006612abc565b5b92915050565b7f4e487b7100000000000000000000000000000000000000000000000000000000600052603160045260246000fd5b7f4e487b7100000000000000000000000000000000000000000000000000000000600052601260045260246000fdfea26469706673582212209376f5c68bd937ccb87257b6664182fa3450cbd30db207f10754e718b854acd864736f6c63430008180033697066733a2f2f516d566d50386675654d5777724b3669576b7335757370344d4e57726d4e777a79767a33615a697145564c426d342f676d65697066733a2f2f516d566d50386675654d5777724b3669576b7335757370344d4e57726d4e777a79767a33615a697145564c426d342f737065656479697066733a2f2f516d566d50386675654d5777724b3669576b7335757370344d4e57726d4e777a79767a33615a697145564c426d342f6c617365727833697066733a2f2f516d566d50386675654d5777724b3669576b7335757370344d4e57726d4e777a79767a33615a697145564c426d342f74616e6b697066733a2f2f516d566d50386675654d5777724b3669576b7335757370344d4e57726d4e777a79767a33615a697145564c426d342f647273697066733a2f2f516d566d50386675654d5777724b3669576b7335757370344d4e57726d4e777a79767a33615a697145564c426d342f6472737835",
  "linkReferences": {},
  "deployedLinkReferences": {}
}