{
  "_format": "hh-sol-artifact-1",
  "contractName": "NFTMarketplace",
  "sourceName": "contracts/NFTMarketplace.sol",
  "abi": [
    {
      "inputs": [],
      "stateMutability": "nonpayable",
      "type": "constructor"
    },
    {
      "inputs": [],
      "name": "ReentrancyGuardReentrantCall",
      "type": "error"
    },
    {
      "anonymous": false,
      "inputs": [
        {
          "indexed": true,
          "internalType": "uint256",
          "name": "itemId",
          "type": "uint256"
        },
        {
          "indexed": true,
          "internalType": "address",
          "name": "nftContract",
          "type": "address"
        },
        {
          "indexed": true,
          "internalType": "uint256",
          "name": "tokenId",
          "type": "uint256"
        },
        {
          "indexed": false,
          "internalType": "address",
          "name": "seller",
          "type": "address"
        },
        {
          "indexed": false,
          "internalType": "address",
          "name": "owner",
          "type": "address"
        },
        {
          "indexed": false,
          "internalType": "uint256",
          "name": "price",
          "type": "uint256"
        },
        {
          "indexed": false,
          "internalType": "bool",
          "name": "sold",
          "type": "bool"
        },
        {
          "indexed": false,
          "internalType": "bool",
          "name": "listed",
          "type": "bool"
        }
      ],
      "name": "MarketplaceItemCreated",
      "type": "event"
    },
    {
      "anonymous": false,
      "inputs": [
        {
          "indexed": true,
          "internalType": "uint256",
          "name": "itemId",
          "type": "uint256"
        },
        {
          "indexed": true,
          "internalType": "address",
          "name": "seller",
          "type": "address"
        }
      ],
      "name": "MarketplaceItemUnlisted",
      "type": "event"
    },
    {
      "inputs": [
        {
          "internalType": "address",
          "name": "nftContract",
          "type": "address"
        },
        {
          "internalType": "uint256",
          "name": "tokenId",
          "type": "uint256"
        },
        {
          "internalType": "uint256",
          "name": "price",
          "type": "uint256"
        }
      ],
      "name": "createMarketItem",
      "outputs": [],
      "stateMutability": "payable",
      "type": "function"
    },
    {
      "inputs": [
        {
          "internalType": "address",
          "name": "nftContract",
          "type": "address"
        },
        {
          "internalType": "uint256",
          "name": "itemId",
          "type": "uint256"
        }
      ],
      "name": "createMarketSale",
      "outputs": [],
      "stateMutability": "payable",
      "type": "function"
    },
    {
      "inputs": [
        {
          "internalType": "uint256",
          "name": "page",
          "type": "uint256"
        },
        {
          "internalType": "uint256",
          "name": "limit",
          "type": "uint256"
        }
      ],
      "name": "fetchAllMarketItems",
      "outputs": [
        {
          "components": [
            {
              "internalType": "uint256",
              "name": "itemId",
              "type": "uint256"
            },
            {
              "internalType": "address",
              "name": "nftContract",
              "type": "address"
            },
            {
              "internalType": "uint256",
              "name": "tokenId",
              "type": "uint256"
            },
            {
              "internalType": "address payable",
              "name": "seller",
              "type": "address"
            },
            {
              "internalType": "address payable",
              "name": "owner",
              "type": "address"
            },
            {
              "internalType": "uint256",
              "name": "price",
              "type": "uint256"
            },
            {
              "internalType": "bool",
              "name": "sold",
              "type": "bool"
            },
            {
              "internalType": "bool",
              "name": "listed",
              "type": "bool"
            }
          ],
          "internalType": "struct NFTMarketplace.MarketplaceItem[]",
          "name": "",
          "type": "tuple[]"
        }
      ],
      "stateMutability": "view",
      "type": "function"
    },
    {
      "inputs": [
        {
          "internalType": "uint256",
          "name": "page",
          "type": "uint256"
        },
        {
          "internalType": "uint256",
          "name": "limit",
          "type": "uint256"
        }
      ],
      "name": "fetchMarketItems",
      "outputs": [
        {
          "components": [
            {
              "internalType": "uint256",
              "name": "itemId",
              "type": "uint256"
            },
            {
              "internalType": "address",
              "name": "nftContract",
              "type": "address"
            },
            {
              "internalType": "uint256",
              "name": "tokenId",
              "type": "uint256"
            },
            {
              "internalType": "address payable",
              "name": "seller",
              "type": "address"
            },
            {
              "internalType": "address payable",
              "name": "owner",
              "type": "address"
            },
            {
              "internalType": "uint256",
              "name": "price",
              "type": "uint256"
            },
            {
              "internalType": "bool",
              "name": "sold",
              "type": "bool"
            },
            {
              "internalType": "bool",
              "name": "listed",
              "type": "bool"
            }
          ],
          "internalType": "struct NFTMarketplace.MarketplaceItem[]",
          "name": "",
          "type": "tuple[]"
        }
      ],
      "stateMutability": "view",
      "type": "function"
    },
    {
      "inputs": [],
      "name": "getAvailableItems",
      "outputs": [
        {
          "internalType": "uint256",
          "name": "",
          "type": "uint256"
        }
      ],
      "stateMutability": "view",
      "type": "function"
    },
    {
      "inputs": [],
      "name": "getListingFee",
      "outputs": [
        {
          "internalType": "uint256",
          "name": "",
          "type": "uint256"
        }
      ],
      "stateMutability": "view",
      "type": "function"
    },
    {
      "inputs": [],
      "name": "getTotalListedItems",
      "outputs": [
        {
          "internalType": "uint256",
          "name": "",
          "type": "uint256"
        }
      ],
      "stateMutability": "view",
      "type": "function"
    },
    {
      "inputs": [
        {
          "internalType": "uint256",
          "name": "",
          "type": "uint256"
        }
      ],
      "name": "idToMarketplaceItem",
      "outputs": [
        {
          "internalType": "uint256",
          "name": "itemId",
          "type": "uint256"
        },
        {
          "internalType": "address",
          "name": "nftContract",
          "type": "address"
        },
        {
          "internalType": "uint256",
          "name": "tokenId",
          "type": "uint256"
        },
        {
          "internalType": "address payable",
          "name": "seller",
          "type": "address"
        },
        {
          "internalType": "address payable",
          "name": "owner",
          "type": "address"
        },
        {
          "internalType": "uint256",
          "name": "price",
          "type": "uint256"
        },
        {
          "internalType": "bool",
          "name": "sold",
          "type": "bool"
        },
        {
          "internalType": "bool",
          "name": "listed",
          "type": "bool"
        }
      ],
      "stateMutability": "view",
      "type": "function"
    },
    {
      "inputs": [
        {
          "internalType": "uint256",
          "name": "_listingFee",
          "type": "uint256"
        }
      ],
      "name": "setListingFee",
      "outputs": [],
      "stateMutability": "nonpayable",
      "type": "function"
    },
    {
      "inputs": [
        {
          "internalType": "uint256",
          "name": "itemId",
          "type": "uint256"
        }
      ],
      "name": "unlistMarketItem",
      "outputs": [],
      "stateMutability": "nonpayable",
      "type": "function"
    }
  ],
  "bytecode": "0x60806040526509184e72a00060045534801561001a57600080fd5b50600160008190555033600360006101000a81548173ffffffffffffffffffffffffffffffffffffffff021916908373ffffffffffffffffffffffffffffffffffffffff1602179055506124a6806100736000396000f3fe6080604052600436106100915760003560e01c80637063b64e116100595780637063b64e1461016c578063aab3cff3146101a9578063b8fe6abe146101ed578063c23b139e14610218578063f40daa751461023457610091565b806302db9113146100965780630c43d6f3146100d3578063131dbd09146100fe57806344e7877a1461012757806358eb2df514610150575b600080fd5b3480156100a257600080fd5b506100bd60048036038101906100b8919061188e565b61025f565b6040516100ca9190611aac565b60405180910390f35b3480156100df57600080fd5b506100e861070b565b6040516100f59190611add565b60405180910390f35b34801561010a57600080fd5b5061012560048036038101906101209190611af8565b6107e3565b005b34801561013357600080fd5b5061014e60048036038101906101499190611af8565b61087d565b005b61016a60048036038101906101659190611b51565b6109ec565b005b34801561017857600080fd5b50610193600480360381019061018e919061188e565b610e39565b6040516101a09190611aac565b60405180910390f35b3480156101b557600080fd5b506101d060048036038101906101cb9190611af8565b61131e565b6040516101e4989796959493929190611bd1565b60405180910390f35b3480156101f957600080fd5b506102026113e0565b60405161020f9190611add565b60405180910390f35b610232600480360381019061022d9190611c4f565b6113ea565b005b34801561024057600080fd5b5061024961176e565b6040516102569190611add565b60405180910390f35b6060600060015490506000805b8281101561030657600073ffffffffffffffffffffffffffffffffffffffff166005600060018461029d9190611cbe565b815260200190815260200160002060040160009054906101000a900473ffffffffffffffffffffffffffffffffffffffff1673ffffffffffffffffffffffffffffffffffffffff16036102f95781806102f590611cf2565b9250505b808060010191505061026c565b5060008167ffffffffffffffff81111561032357610322611d3a565b5b60405190808252806020026020018201604052801561035c57816020015b6103496117c8565b8152602001906001900390816103415790505b5090506000805b848110156105f7576005600060018361037c9190611cbe565b815260200190815260200160002060060160019054906101000a900460ff1680156104155750600073ffffffffffffffffffffffffffffffffffffffff16600560006001846103cb9190611cbe565b815260200190815260200160002060040160009054906101000a900473ffffffffffffffffffffffffffffffffffffffff1673ffffffffffffffffffffffffffffffffffffffff16145b156105ea5760006005600060018461042d9190611cbe565b815260200190815260200160002060000154905060006005600083815260200190815260200160002090508060405180610100016040529081600082015481526020016001820160009054906101000a900473ffffffffffffffffffffffffffffffffffffffff1673ffffffffffffffffffffffffffffffffffffffff1673ffffffffffffffffffffffffffffffffffffffff168152602001600282015481526020016003820160009054906101000a900473ffffffffffffffffffffffffffffffffffffffff1673ffffffffffffffffffffffffffffffffffffffff1673ffffffffffffffffffffffffffffffffffffffff1681526020016004820160009054906101000a900473ffffffffffffffffffffffffffffffffffffffff1673ffffffffffffffffffffffffffffffffffffffff1673ffffffffffffffffffffffffffffffffffffffff168152602001600582015481526020016006820160009054906101000a900460ff161515151581526020016006820160019054906101000a900460ff1615151515815250508585815181106105ce576105cd611d69565b5b602002602001018190525083806105e490611cf2565b94505050505b8080600101915050610363565b506000866001896106089190611d98565b6106129190611dcc565b9050600087826106229190611cbe565b90508481116106315780610633565b845b9050600082826106439190611d98565b905060008167ffffffffffffffff81111561066157610660611d3a565b5b60405190808252806020026020018201604052801561069a57816020015b6106876117c8565b81526020019060019003908161067f5790505b50905060005b828110156106f9578681866106b59190611cbe565b815181106106c6576106c5611d69565b5b60200260200101518282815181106106e1576106e0611d69565b5b602002602001018190525080806001019150506106a0565b50809850505050505050505092915050565b600080600090506000600190505b60015481116107db576005600082815260200190815260200160002060060160019054906101000a900460ff1680156107b45750600073ffffffffffffffffffffffffffffffffffffffff166005600083815260200190815260200160002060040160009054906101000a900473ffffffffffffffffffffffffffffffffffffffff1673ffffffffffffffffffffffffffffffffffffffff16145b156107c85781806107c490611cf2565b9250505b80806107d390611cf2565b915050610719565b508091505090565b3373ffffffffffffffffffffffffffffffffffffffff16600360009054906101000a900473ffffffffffffffffffffffffffffffffffffffff1673ffffffffffffffffffffffffffffffffffffffff1614610873576040517f08c379a000000000000000000000000000000000000000000000000000000000815260040161086a90611e91565b60405180910390fd5b8060048190555050565b610885611778565b60006005600083815260200190815260200160002090508060030160009054906101000a900473ffffffffffffffffffffffffffffffffffffffff1673ffffffffffffffffffffffffffffffffffffffff163373ffffffffffffffffffffffffffffffffffffffff161461092e576040517f08c379a000000000000000000000000000000000000000000000000000000000815260040161092590611f23565b60405180910390fd5b8060060160019054906101000a900460ff1661097f576040517f08c379a000000000000000000000000000000000000000000000000000000000815260040161097690611f8f565b60405180910390fd5b60008160060160016101000a81548160ff0219169083151502179055503373ffffffffffffffffffffffffffffffffffffffff16827f228eb2a6fbd3dbf1f9702ca3bc7476a38f6039b1cb7f9ebb9e0ed36feaeabf6d60405160405180910390a3506109e96117be565b50565b6109f4611778565b60008111610a37576040517f08c379a0000000000000000000000000000000000000000000000000000000008152600401610a2e90611ffb565b60405180910390fd5b6004543414610a7b576040517f08c379a0000000000000000000000000000000000000000000000000000000008152600401610a729061208d565b60405180910390fd5b8273ffffffffffffffffffffffffffffffffffffffff1663e985e9c533306040518363ffffffff1660e01b8152600401610ab69291906120ad565b602060405180830381865afa158015610ad3573d6000803e3d6000fd5b505050506040513d601f19601f82011682018060405250810190610af79190612102565b80610ba657503073ffffffffffffffffffffffffffffffffffffffff168373ffffffffffffffffffffffffffffffffffffffff1663081812fc846040518263ffffffff1660e01b8152600401610b4d9190611add565b602060405180830381865afa158015610b6a573d6000803e3d6000fd5b505050506040513d601f19601f82011682018060405250810190610b8e9190612144565b73ffffffffffffffffffffffffffffffffffffffff16145b610be5576040517f08c379a0000000000000000000000000000000000000000000000000000000008152600401610bdc906121e3565b60405180910390fd5b60016000815480929190610bf890611cf2565b9190505550600060015490506040518061010001604052808281526020018573ffffffffffffffffffffffffffffffffffffffff1681526020018481526020013373ffffffffffffffffffffffffffffffffffffffff168152602001600073ffffffffffffffffffffffffffffffffffffffff16815260200183815260200160001515815260200160011515815250600560008381526020019081526020016000206000820151816000015560208201518160010160006101000a81548173ffffffffffffffffffffffffffffffffffffffff021916908373ffffffffffffffffffffffffffffffffffffffff1602179055506040820151816002015560608201518160030160006101000a81548173ffffffffffffffffffffffffffffffffffffffff021916908373ffffffffffffffffffffffffffffffffffffffff16021790555060808201518160040160006101000a81548173ffffffffffffffffffffffffffffffffffffffff021916908373ffffffffffffffffffffffffffffffffffffffff16021790555060a0820151816005015560c08201518160060160006101000a81548160ff02191690831515021790555060e08201518160060160016101000a81548160ff021916908315150217905550905050828473ffffffffffffffffffffffffffffffffffffffff16827f5f8cd9830a11c04c3944f07de9f138d79ca49aeb3ebc40cda39ad56549ea99173360008760006001604051610e23959493929190612203565b60405180910390a450610e346117be565b505050565b6060600060015490506000805b82811015610f195760056000600183610e5f9190611cbe565b815260200190815260200160002060060160019054906101000a900460ff168015610ef85750600073ffffffffffffffffffffffffffffffffffffffff1660056000600184610eae9190611cbe565b815260200190815260200160002060040160009054906101000a900473ffffffffffffffffffffffffffffffffffffffff1673ffffffffffffffffffffffffffffffffffffffff16145b15610f0c578180610f0890611cf2565b9250505b8080600101915050610e46565b5060008167ffffffffffffffff811115610f3657610f35611d3a565b5b604051908082528060200260200182016040528015610f6f57816020015b610f5c6117c8565b815260200190600190039081610f545790505b5090506000805b8481101561120a5760056000600183610f8f9190611cbe565b815260200190815260200160002060060160019054906101000a900460ff1680156110285750600073ffffffffffffffffffffffffffffffffffffffff1660056000600184610fde9190611cbe565b815260200190815260200160002060040160009054906101000a900473ffffffffffffffffffffffffffffffffffffffff1673ffffffffffffffffffffffffffffffffffffffff16145b156111fd576000600560006001846110409190611cbe565b815260200190815260200160002060000154905060006005600083815260200190815260200160002090508060405180610100016040529081600082015481526020016001820160009054906101000a900473ffffffffffffffffffffffffffffffffffffffff1673ffffffffffffffffffffffffffffffffffffffff1673ffffffffffffffffffffffffffffffffffffffff168152602001600282015481526020016003820160009054906101000a900473ffffffffffffffffffffffffffffffffffffffff1673ffffffffffffffffffffffffffffffffffffffff1673ffffffffffffffffffffffffffffffffffffffff1681526020016004820160009054906101000a900473ffffffffffffffffffffffffffffffffffffffff1673ffffffffffffffffffffffffffffffffffffffff1673ffffffffffffffffffffffffffffffffffffffff168152602001600582015481526020016006820160009054906101000a900460ff161515151581526020016006820160019054906101000a900460ff1615151515815250508585815181106111e1576111e0611d69565b5b602002602001018190525083806111f790611cf2565b94505050505b8080600101915050610f76565b5060008660018961121b9190611d98565b6112259190611dcc565b9050600087826112359190611cbe565b90508481116112445780611246565b845b9050600082826112569190611d98565b905060008167ffffffffffffffff81111561127457611273611d3a565b5b6040519080825280602002602001820160405280156112ad57816020015b61129a6117c8565b8152602001906001900390816112925790505b50905060005b8281101561130c578681866112c89190611cbe565b815181106112d9576112d8611d69565b5b60200260200101518282815181106112f4576112f3611d69565b5b602002602001018190525080806001019150506112b3565b50809850505050505050505092915050565b60056020528060005260406000206000915090508060000154908060010160009054906101000a900473ffffffffffffffffffffffffffffffffffffffff16908060020154908060030160009054906101000a900473ffffffffffffffffffffffffffffffffffffffff16908060040160009054906101000a900473ffffffffffffffffffffffffffffffffffffffff16908060050154908060060160009054906101000a900460ff16908060060160019054906101000a900460ff16905088565b6000600454905090565b6113f2611778565b60006005600083815260200190815260200160002090506000816005015490506000826002015490508260060160019054906101000a900460ff1661146c576040517f08c379a0000000000000000000000000000000000000000000000000000000008152600401611463906122c8565b60405180910390fd5b8134146114ae576040517f08c379a00000000000000000000000000000000000000000000000000000000081526004016114a59061235a565b60405180910390fd5b600060646003846114bf9190611dcc565b6114c991906123a9565b9050600081846114d99190611d98565b90506005600087815260200190815260200160002060030160009054906101000a900473ffffffffffffffffffffffffffffffffffffffff1673ffffffffffffffffffffffffffffffffffffffff166108fc829081150290604051600060405180830381858888f19350505050158015611557573d6000803e3d6000fd5b50600360009054906101000a900473ffffffffffffffffffffffffffffffffffffffff1673ffffffffffffffffffffffffffffffffffffffff166108fc839081150290604051600060405180830381858888f193505050501580156115c0573d6000803e3d6000fd5b508673ffffffffffffffffffffffffffffffffffffffff166342842e0e6005600089815260200190815260200160002060030160009054906101000a900473ffffffffffffffffffffffffffffffffffffffff1633866040518463ffffffff1660e01b815260040161163493929190612439565b600060405180830381600087803b15801561164e57600080fd5b505af1158015611662573d6000803e3d6000fd5b50505050336005600088815260200190815260200160002060040160006101000a81548173ffffffffffffffffffffffffffffffffffffffff021916908373ffffffffffffffffffffffffffffffffffffffff16021790555060016005600088815260200190815260200160002060060160006101000a81548160ff021916908315150217905550600260008154809291906116fd90611cf2565b91905055508334111561175d573373ffffffffffffffffffffffffffffffffffffffff166108fc85346117309190611d98565b9081150290604051600060405180830381858888f1935050505015801561175b573d6000803e3d6000fd5b505b505050505061176a6117be565b5050565b6000600154905090565b6002600054036117b4576040517f3ee5aeb500000000000000000000000000000000000000000000000000000000815260040160405180910390fd5b6002600081905550565b6001600081905550565b60405180610100016040528060008152602001600073ffffffffffffffffffffffffffffffffffffffff16815260200160008152602001600073ffffffffffffffffffffffffffffffffffffffff168152602001600073ffffffffffffffffffffffffffffffffffffffff168152602001600081526020016000151581526020016000151581525090565b600080fd5b6000819050919050565b61186b81611858565b811461187657600080fd5b50565b60008135905061188881611862565b92915050565b600080604083850312156118a5576118a4611853565b5b60006118b385828601611879565b92505060206118c485828601611879565b9150509250929050565b600081519050919050565b600082825260208201905092915050565b6000819050602082019050919050565b61190381611858565b82525050565b600073ffffffffffffffffffffffffffffffffffffffff82169050919050565b600061193482611909565b9050919050565b61194481611929565b82525050565b600061195582611909565b9050919050565b6119658161194a565b82525050565b60008115159050919050565b6119808161196b565b82525050565b6101008201600082015161199d60008501826118fa565b5060208201516119b0602085018261193b565b5060408201516119c360408501826118fa565b5060608201516119d6606085018261195c565b5060808201516119e9608085018261195c565b5060a08201516119fc60a08501826118fa565b5060c0820151611a0f60c0850182611977565b5060e0820151611a2260e0850182611977565b50505050565b6000611a348383611986565b6101008301905092915050565b6000602082019050919050565b6000611a59826118ce565b611a6381856118d9565b9350611a6e836118ea565b8060005b83811015611a9f578151611a868882611a28565b9750611a9183611a41565b925050600181019050611a72565b5085935050505092915050565b60006020820190508181036000830152611ac68184611a4e565b905092915050565b611ad781611858565b82525050565b6000602082019050611af26000830184611ace565b92915050565b600060208284031215611b0e57611b0d611853565b5b6000611b1c84828501611879565b91505092915050565b611b2e81611929565b8114611b3957600080fd5b50565b600081359050611b4b81611b25565b92915050565b600080600060608486031215611b6a57611b69611853565b5b6000611b7886828701611b3c565b9350506020611b8986828701611879565b9250506040611b9a86828701611879565b9150509250925092565b611bad81611929565b82525050565b611bbc8161194a565b82525050565b611bcb8161196b565b82525050565b600061010082019050611be7600083018b611ace565b611bf4602083018a611ba4565b611c016040830189611ace565b611c0e6060830188611bb3565b611c1b6080830187611bb3565b611c2860a0830186611ace565b611c3560c0830185611bc2565b611c4260e0830184611bc2565b9998505050505050505050565b60008060408385031215611c6657611c65611853565b5b6000611c7485828601611b3c565b9250506020611c8585828601611879565b9150509250929050565b7f4e487b7100000000000000000000000000000000000000000000000000000000600052601160045260246000fd5b6000611cc982611858565b9150611cd483611858565b9250828201905080821115611cec57611ceb611c8f565b5b92915050565b6000611cfd82611858565b91507fffffffffffffffffffffffffffffffffffffffffffffffffffffffffffffffff8203611d2f57611d2e611c8f565b5b600182019050919050565b7f4e487b7100000000000000000000000000000000000000000000000000000000600052604160045260246000fd5b7f4e487b7100000000000000000000000000000000000000000000000000000000600052603260045260246000fd5b6000611da382611858565b9150611dae83611858565b9250828203905081811115611dc657611dc5611c8f565b5b92915050565b6000611dd782611858565b9150611de283611858565b9250828202611df081611858565b91508282048414831517611e0757611e06611c8f565b5b5092915050565b600082825260208201905092915050565b7f4f6e6c79206d61726b6574706c616365206f776e65722063616e2063616c6c2060008201527f7468697300000000000000000000000000000000000000000000000000000000602082015250565b6000611e7b602483611e0e565b9150611e8682611e1f565b604082019050919050565b60006020820190508181036000830152611eaa81611e6e565b9050919050565b7f4f6e6c79207468652073656c6c65722063616e20756e6c69737420746869732060008201527f6974656d2e000000000000000000000000000000000000000000000000000000602082015250565b6000611f0d602583611e0e565b9150611f1882611eb1565b604082019050919050565b60006020820190508181036000830152611f3c81611f00565b9050919050565b7f4974656d20697320616c726561647920756e6c69737465642e00000000000000600082015250565b6000611f79601983611e0e565b9150611f8482611f43565b602082019050919050565b60006020820190508181036000830152611fa881611f6c565b9050919050565b7f5072696365206d757374206265206174206c6561737420312077656900000000600082015250565b6000611fe5601c83611e0e565b9150611ff082611faf565b602082019050919050565b6000602082019050818103600083015261201481611fd8565b9050919050565b7f5072696365206d75737420626520657175616c20746f206c697374696e67206660008201527f6565000000000000000000000000000000000000000000000000000000000000602082015250565b6000612077602283611e0e565b91506120828261201b565b604082019050919050565b600060208201905081810360008301526120a68161206a565b9050919050565b60006040820190506120c26000830185611ba4565b6120cf6020830184611ba4565b9392505050565b6120df8161196b565b81146120ea57600080fd5b50565b6000815190506120fc816120d6565b92915050565b60006020828403121561211857612117611853565b5b6000612126848285016120ed565b91505092915050565b60008151905061213e81611b25565b92915050565b60006020828403121561215a57612159611853565b5b60006121688482850161212f565b91505092915050565b7f4d61726b6574706c616365206e6f7420617070726f76656420746f207472616e60008201527f73666572204e4654000000000000000000000000000000000000000000000000602082015250565b60006121cd602883611e0e565b91506121d882612171565b604082019050919050565b600060208201905081810360008301526121fc816121c0565b9050919050565b600060a0820190506122186000830188611ba4565b6122256020830187611ba4565b6122326040830186611ace565b61223f6060830185611bc2565b61224c6080830184611bc2565b9695505050505050565b7f4974656d206973206e6f742063757272656e746c79206c697374656420666f7260008201527f2073616c652e0000000000000000000000000000000000000000000000000000602082015250565b60006122b2602683611e0e565b91506122bd82612256565b604082019050919050565b600060208201905081810360008301526122e1816122a5565b9050919050565b7f506c65617365207375626d6974207468652061736b696e67207072696365207460008201527f6f20636f6d706c65746520746865207075726368617365000000000000000000602082015250565b6000612344603783611e0e565b915061234f826122e8565b604082019050919050565b6000602082019050818103600083015261237381612337565b9050919050565b7f4e487b7100000000000000000000000000000000000000000000000000000000600052601260045260246000fd5b60006123b482611858565b91506123bf83611858565b9250826123cf576123ce61237a565b5b828204905092915050565b6000819050919050565b60006123ff6123fa6123f584611909565b6123da565b611909565b9050919050565b6000612411826123e4565b9050919050565b600061242382612406565b9050919050565b61243381612418565b82525050565b600060608201905061244e600083018661242a565b61245b6020830185611ba4565b6124686040830184611ace565b94935050505056fea2646970667358221220b35bf495ad2f9eb3aced9ae822b029d1c45f15b916b27ce65446d19b31ab6a2864736f6c63430008180033",
  "linkReferences": {},
  "deployedLinkReferences": {}
}